{
  "address": "0x9c0bCB161986d50013783003FDef76f1d3548F3A",
  "abi": [
    {
      "anonymous": false,
      "inputs": [
        {
          "indexed": true,
          "internalType": "address",
          "name": "account",
          "type": "address"
        },
        {
          "indexed": true,
          "internalType": "address",
          "name": "sessionKey",
          "type": "address"
        },
        {
          "indexed": false,
          "internalType": "uint48",
          "name": "validUntil",
          "type": "uint48"
        },
        {
          "indexed": false,
          "internalType": "uint48",
          "name": "validAfter",
          "type": "uint48"
        }
      ],
      "name": "NewSessionKey",
      "type": "event"
    },
    {
      "inputs": [],
      "name": "NAME",
      "outputs": [
        {
          "internalType": "string",
          "name": "",
          "type": "string"
        }
      ],
      "stateMutability": "view",
      "type": "function"
    },
    {
      "inputs": [],
      "name": "VERSION",
      "outputs": [
        {
          "internalType": "string",
          "name": "",
          "type": "string"
        }
      ],
      "stateMutability": "view",
      "type": "function"
    },
    {
      "inputs": [
        {
          "internalType": "bytes",
          "name": "data",
          "type": "bytes"
        }
      ],
      "name": "enable",
      "outputs": [],
      "stateMutability": "payable",
      "type": "function"
    },
    {
      "inputs": [
        {
          "internalType": "address",
          "name": "sessionKey",
          "type": "address"
        },
        {
          "internalType": "address",
          "name": "account",
          "type": "address"
        }
      ],
      "name": "sessionKeyStorage",
      "outputs": [
        {
          "internalType": "uint48",
          "name": "validUntil",
          "type": "uint48"
        },
        {
          "internalType": "uint48",
          "name": "validAfter",
          "type": "uint48"
        }
      ],
      "stateMutability": "view",
      "type": "function"
    },
    {
      "inputs": [
        {
          "internalType": "bytes4",
          "name": "interfaceId",
          "type": "bytes4"
        }
      ],
      "name": "supportsInterface",
      "outputs": [
        {
          "internalType": "bool",
          "name": "",
          "type": "bool"
        }
      ],
      "stateMutability": "pure",
      "type": "function"
    },
    {
      "inputs": [
        {
          "internalType": "address",
          "name": "caller",
          "type": "address"
        },
        {
          "internalType": "bytes",
          "name": "",
          "type": "bytes"
        }
      ],
      "name": "validCaller",
      "outputs": [
        {
          "internalType": "bool",
          "name": "",
          "type": "bool"
        }
      ],
      "stateMutability": "view",
      "type": "function"
    },
    {
      "inputs": [
        {
          "internalType": "address",
          "name": "account",
          "type": "address"
        },
        {
          "internalType": "bytes32",
          "name": "userOpHash",
          "type": "bytes32"
        },
        {
          "internalType": "bytes",
          "name": "signature",
          "type": "bytes"
        }
      ],
      "name": "validateSignature",
      "outputs": [
        {
          "internalType": "uint256",
          "name": "validationData",
          "type": "uint256"
        }
      ],
      "stateMutability": "payable",
      "type": "function"
    }
  ],
  "transactionHash": "0x3da89ebae91f5fd785a8b63172fc25c47be3aea22a975e703bec93bdd235016b",
  "args": [],
  "numDeployments": 1,
  "solcInputHash": "77b8414958cba7d99bbc13b3860613e6",
  "bytecode": "0x608060405234801561001057600080fd5b50610a9a806100206000396000f3fe6080604052600436106100705760003560e01c80639ea9bd591161004e5780639ea9bd5914610109578063a3f4df7e14610129578063fbab6a7a1461017f578063ffa1ad74146101e957600080fd5b806301ffc9a7146100755780630c959556146100d3578063971604c6146100e8575b600080fd5b34801561008157600080fd5b506100be6100903660046107c2565b7fffffffff000000000000000000000000000000000000000000000000000000001663052a2cc960e01b1490565b60405190151581526020015b60405180910390f35b6100e66100e1366004610846565b610232565b005b6100fb6100f63660046108a4565b6103bb565b6040519081526020016100ca565b34801561011557600080fd5b506100be6101243660046108fe565b6104a3565b34801561013557600080fd5b506101726040518060400160405280601b81526020017f4f776e65722053657373696f6e204b65792056616c696461746f72000000000081525081565b6040516100ca9190610951565b34801561018b57600080fd5b506101ca61019a36600461099f565b600060208181529281526040808220909352908152205465ffffffffffff80821691660100000000000090041682565b6040805165ffffffffffff9384168152929091166020830152016100ca565b3480156101f557600080fd5b506101726040518060400160405280600581526020017f302e302e3100000000000000000000000000000000000000000000000000000081525081565b600061024160148284866109d2565b61024a916109fc565b60601c9050600061025f601a601485876109d2565b61026891610a31565b60d01c9050600061027d6020601a86886109d2565b61028691610a31565b60d01c905065ffffffffffff8216811061030d5760405162461bcd60e51b815260206004820152603760248201527f4f776e657253657373696f6e4b657956616c696461746f723a20696e76616c6960448201527f642076616c6964556e74696c2f76616c6964416674657200000000000000000060648201526084015b60405180910390fd5b60408051808201825265ffffffffffff84811680835284821660208085018281526001600160a01b038a166000818152808452888120338083529085529089902097518854935188166601000000000000026bffffffffffffffffffffffff19909416971696909617919091179095558551928352820152919290917f31b5c77503fad62fe58a0293e3020e533a464b77d0a29f3495d61c90c09086c7910160405180910390a35050505050565b7f19457468657265756d205369676e6564204d6573736167653a0a3332000000006000908152601c849052603c8120600061042c8286868080601f01602080910402602001604051908101604052809392919081815260200183838082843760009201919091525061051092505050565b6001600160a01b03808216600090815260208181526040808320938c16835292905290812080549293509165ffffffffffff169003610471576001935050505061049b565b80546104959060009065ffffffffffff808216916601000000000000900416610534565b93505050505b949350505050565b6001600160a01b038316600090815260208181526040808320338452909152812080546601000000000000900465ffffffffffff1642116104e8576000915050610509565b805465ffffffffffff16421115610503576000915050610509565b60019150505b9392505050565b600080600061051f858561056c565b9150915061052c816105b1565b509392505050565b600060d08265ffffffffffff16901b60a08465ffffffffffff16901b8561055c57600061055f565b60015b60ff161717949350505050565b60008082516041036105a25760208301516040840151606085015160001a610596878285856106fe565b945094505050506105aa565b506000905060025b9250929050565b60008160048111156105c5576105c5610a77565b036105cd5750565b60018160048111156105e1576105e1610a77565b0361062e5760405162461bcd60e51b815260206004820152601860248201527f45434453413a20696e76616c6964207369676e617475726500000000000000006044820152606401610304565b600281600481111561064257610642610a77565b0361068f5760405162461bcd60e51b815260206004820152601f60248201527f45434453413a20696e76616c6964207369676e6174757265206c656e677468006044820152606401610304565b60038160048111156106a3576106a3610a77565b036106fb5760405162461bcd60e51b815260206004820152602260248201527f45434453413a20696e76616c6964207369676e6174757265202773272076616c604482015261756560f01b6064820152608401610304565b50565b6000807f7fffffffffffffffffffffffffffffff5d576e7357a4501ddfe92f46681b20a083111561073557506000905060036107b9565b6040805160008082526020820180845289905260ff881692820192909252606081018690526080810185905260019060a0016020604051602081039080840390855afa158015610789573d6000803e3d6000fd5b5050604051601f1901519150506001600160a01b0381166107b2576000600192509250506107b9565b9150600090505b94509492505050565b6000602082840312156107d457600080fd5b81357fffffffff000000000000000000000000000000000000000000000000000000008116811461050957600080fd5b60008083601f84011261081657600080fd5b50813567ffffffffffffffff81111561082e57600080fd5b6020830191508360208285010111156105aa57600080fd5b6000806020838503121561085957600080fd5b823567ffffffffffffffff81111561087057600080fd5b61087c85828601610804565b90969095509350505050565b80356001600160a01b038116811461089f57600080fd5b919050565b600080600080606085870312156108ba57600080fd5b6108c385610888565b935060208501359250604085013567ffffffffffffffff8111156108e657600080fd5b6108f287828801610804565b95989497509550505050565b60008060006040848603121561091357600080fd5b61091c84610888565b9250602084013567ffffffffffffffff81111561093857600080fd5b61094486828701610804565b9497909650939450505050565b600060208083528351808285015260005b8181101561097e57858101830151858201604001528201610962565b506000604082860101526040601f19601f8301168501019250505092915050565b600080604083850312156109b257600080fd5b6109bb83610888565b91506109c960208401610888565b90509250929050565b600080858511156109e257600080fd5b838611156109ef57600080fd5b5050820193919092039150565b6bffffffffffffffffffffffff198135818116916014851015610a295780818660140360031b1b83161692505b505092915050565b7fffffffffffff00000000000000000000000000000000000000000000000000008135818116916006851015610a295760069490940360031b84901b1690921692915050565b634e487b7160e01b600052602160045260246000fdfea164736f6c6343000813000a",
  "devdoc": {
    "kind": "dev",
    "methods": {
      "supportsInterface(bytes4)": {
        "details": "Returns true if this contract implements the interface defined by `interfaceId`. See the corresponding https://eips.ethereum.org/EIPS/eip-165#how-interfaces-are-identified[EIP section] to learn more about how these ids are created. This function call must use less than 30 000 gas."
      }
    },
    "version": 1
  },
  "userdoc": {
    "kind": "user",
    "methods": {},
    "version": 1
  },
  "storageLayout": {
    "storage": [
      {
        "astId": 5866,
        "contract": "contracts/validators/OwnerSessionKeyValidator.sol:OwnerSessionKeyValidator",
        "label": "sessionKeyStorage",
        "offset": 0,
        "slot": "0",
        "type": "t_mapping(t_address,t_mapping(t_address,t_struct(SessionKeyStorage)5839_storage))"
      }
    ],
    "types": {
      "t_address": {
        "encoding": "inplace",
        "label": "address",
        "numberOfBytes": "20"
      },
      "t_mapping(t_address,t_mapping(t_address,t_struct(SessionKeyStorage)5839_storage))": {
        "encoding": "mapping",
        "key": "t_address",
        "label": "mapping(address => mapping(address => struct SessionKeyStorage))",
        "numberOfBytes": "32",
        "value": "t_mapping(t_address,t_struct(SessionKeyStorage)5839_storage)"
      },
      "t_mapping(t_address,t_struct(SessionKeyStorage)5839_storage)": {
        "encoding": "mapping",
        "key": "t_address",
        "label": "mapping(address => struct SessionKeyStorage)",
        "numberOfBytes": "32",
        "value": "t_struct(SessionKeyStorage)5839_storage"
      },
      "t_struct(SessionKeyStorage)5839_storage": {
        "encoding": "inplace",
        "label": "struct SessionKeyStorage",
        "members": [
          {
            "astId": 5836,
            "contract": "contracts/validators/OwnerSessionKeyValidator.sol:OwnerSessionKeyValidator",
            "label": "validUntil",
            "offset": 0,
            "slot": "0",
            "type": "t_uint48"
          },
          {
            "astId": 5838,
            "contract": "contracts/validators/OwnerSessionKeyValidator.sol:OwnerSessionKeyValidator",
            "label": "validAfter",
            "offset": 6,
            "slot": "0",
            "type": "t_uint48"
          }
        ],
        "numberOfBytes": "32"
      },
      "t_uint48": {
        "encoding": "inplace",
        "label": "uint48",
        "numberOfBytes": "6"
      }
    }
  }
}