{
  "address": "0xebB3F7930b044f4F85263e1Ed99490CA1D5414b2",
  "abi": [
    {
      "inputs": [
        {
          "internalType": "bytes32",
          "name": "message",
          "type": "bytes32"
        },
        {
          "internalType": "bytes",
          "name": "signature",
          "type": "bytes"
        },
        {
          "internalType": "bytes",
          "name": "publicKey",
          "type": "bytes"
        }
      ],
      "name": "validateSignature",
      "outputs": [
        {
          "internalType": "bool",
          "name": "result",
          "type": "bool"
        }
      ],
      "stateMutability": "view",
      "type": "function"
    }
  ],
  "transactionHash": "0x8232ecc16147392bcd21ca496d6db43423e06407c5b94f11f4dc2dbe27240cc1",
  "args": [],
  "numDeployments": 1,
  "solcInputHash": "e7b5f1c1bc37ac4da0d4db039ee1af4c",
  "bytecode": "0x608060405234801561001057600080fd5b506101c3806100206000396000f3fe608060405234801561001057600080fd5b506004361061002b5760003560e01c8063ae7e17f014610030575b600080fd5b61004361003e36600461011a565b610057565b604051901515815260200160405180910390f35b600080808080610069888a018a610194565b909450925061007a86880188610194565b809250819350505060006040518b8152856020820152846040820152600160fa1b606082015283606182015282608182015260018260a1836180015afa905080801561002b575050519a9950505050505050505050565b60008083601f8401126100e357600080fd5b50813567ffffffffffffffff8111156100fb57600080fd5b60208301915083602082850101111561011357600080fd5b9250929050565b60008060008060006060868803121561013257600080fd5b85359450602086013567ffffffffffffffff8082111561015157600080fd5b61015d89838a016100d1565b9096509450604088013591508082111561017657600080fd5b50610183888289016100d1565b969995985093965092949392505050565b600080604083850312156101a757600080fd5b5050803592602090910135915056fea164736f6c6343000813000a",
  "devdoc": {
    "kind": "dev",
    "methods": {},
    "version": 1
  },
  "userdoc": {
    "kind": "user",
    "methods": {},
    "version": 1
  },
  "storageLayout": {
    "storage": [],
    "types": null
  }
}