{
  "address": "0x6D7746E6fFfaddC9E71f7f633b85A1053EABdc10",
  "abi": [
    {
      "inputs": [
        {
          "internalType": "contract IEntryPoint",
          "name": "_entryPoint",
          "type": "address"
        },
        {
          "internalType": "address",
          "name": "_handler",
          "type": "address"
        }
      ],
      "stateMutability": "nonpayable",
      "type": "constructor"
    },
    {
      "inputs": [],
      "name": "accountImplementation",
      "outputs": [
        {
          "internalType": "contract SmartAccount",
          "name": "",
          "type": "address"
        }
      ],
      "stateMutability": "view",
      "type": "function"
    },
    {
      "inputs": [
        {
          "internalType": "address[]",
          "name": "validators",
          "type": "address[]"
        },
        {
          "internalType": "bytes[]",
          "name": "data",
          "type": "bytes[]"
        },
        {
          "internalType": "uint256",
          "name": "salt",
          "type": "uint256"
        }
      ],
      "name": "createAccount",
      "outputs": [
        {
          "internalType": "contract SmartAccount",
          "name": "ret",
          "type": "address"
        }
      ],
      "stateMutability": "nonpayable",
      "type": "function"
    },
    {
      "inputs": [
        {
          "internalType": "address[]",
          "name": "validators",
          "type": "address[]"
        },
        {
          "internalType": "bytes[]",
          "name": "data",
          "type": "bytes[]"
        },
        {
          "internalType": "uint256",
          "name": "salt",
          "type": "uint256"
        }
      ],
      "name": "getAddress",
      "outputs": [
        {
          "internalType": "address",
          "name": "",
          "type": "address"
        }
      ],
      "stateMutability": "view",
      "type": "function"
    },
    {
      "inputs": [],
      "name": "handler",
      "outputs": [
        {
          "internalType": "address",
          "name": "",
          "type": "address"
        }
      ],
      "stateMutability": "view",
      "type": "function"
    }
  ],
  "transactionHash": "0xca1b2e4d7cc3d886e45a187380f62737b79cf3e9a558290787135ee537ec811f",
  "args": [
    "0xc3527348De07d591c9d567ce1998eFA2031B8675",
    "0x0aDb72414B62BD6Eb7b5b934FEB7E68e46E338Ad"
  ],
  "numDeployments": 1,
  "solcInputHash": "77b8414958cba7d99bbc13b3860613e6",
  "bytecode": "0x60c060405234801561001057600080fd5b50604051612feb380380612feb83398101604081905261002f916100b0565b6001600160a01b03811660a052604051829061004a9061008b565b6001600160a01b039091168152602001604051809103906000f080158015610076573d6000803e3d6000fd5b506001600160a01b0316608052506100ea9050565b6123e880610c0383390190565b6001600160a01b03811681146100ad57600080fd5b50565b600080604083850312156100c357600080fd5b82516100ce81610098565b60208401519092506100df81610098565b809150509250929050565b60805160a051610ada6101296000396000818160cf01528181610147015261025b015260008181605d01528181610126015261023a0152610ada6000f3fe60806040523480156200001157600080fd5b5060043610620000525760003560e01c806311464fbe146200005757806340d513b8146200009b5780639765771514620000b2578063c80916d414620000c9575b600080fd5b6200007f7f000000000000000000000000000000000000000000000000000000000000000081565b6040516001600160a01b03909116815260200160405180910390f35b6200007f620000ac366004620003c7565b620000f1565b6200007f620000c3366004620003c7565b62000208565b6200007f7f000000000000000000000000000000000000000000000000000000000000000081565b60008062000103878787878762000208565b90506001600160a01b0381163b80156200012057509050620001ff565b8360001b7f00000000000000000000000000000000000000000000000000000000000000007f00000000000000000000000000000000000000000000000000000000000000008a8a8a8a604051602401620001809594939291906200046b565b60408051601f198184030181529181526020820180517bffffffffffffffffffffffffffffffffffffffffffffffffffffffff1663d561e48960e01b17905251620001cb906200036a565b620001d892919062000590565b8190604051809103906000f5905080158015620001f9573d6000803e3d6000fd5b50925050505b95945050505050565b6000620003208260001b6040518060200162000224906200036a565b6020820181038252601f19601f820116604052507f00000000000000000000000000000000000000000000000000000000000000007f00000000000000000000000000000000000000000000000000000000000000008a8a8a8a604051602401620002949594939291906200046b565b60408051601f19818403018152918152602080830180517bffffffffffffffffffffffffffffffffffffffffffffffffffffffff1663d561e48960e01b1790529051620002e49392910162000590565b60408051601f1981840301815290829052620003049291602001620005d5565b604051602081830303815290604052805190602001206200032a565b9695505050505050565b60006200033983833062000340565b9392505050565b6000604051836040820152846020820152828152600b8101905060ff815360559020949350505050565b6104c5806200060983390190565b60008083601f8401126200038b57600080fd5b50813567ffffffffffffffff811115620003a457600080fd5b6020830191508360208260051b8501011115620003c057600080fd5b9250929050565b600080600080600060608688031215620003e057600080fd5b853567ffffffffffffffff80821115620003f957600080fd5b6200040789838a0162000378565b909750955060208801359150808211156200042157600080fd5b50620004308882890162000378565b96999598509660400135949350505050565b81835281816020850137506000828201602090810191909152601f909101601f19169091010190565b6001600160a01b03868116825260606020808401829052908301869052600091879160808501845b89811015620004c2578435848116808214620004ae57600080fd5b835250938201939082019060010162000493565b5085810360408701528681528181019350600587901b8101820192508760005b888110156200055957828503601f190186528135368b9003601e190181126200050a57600080fd5b8a01848101903567ffffffffffffffff8111156200052757600080fd5b8036038213156200053757600080fd5b6200054487828462000442565b978601979650505090830190600101620004e2565b50929b9a5050505050505050505050565b60005b83811015620005875781810151838201526020016200056d565b50506000910152565b6001600160a01b03831681526040602082015260008251806040840152620005c08160608501602087016200056a565b601f01601f1916919091016060019392505050565b60008351620005e98184602088016200056a565b835190830190620005ff8183602088016200056a565b0194935050505056fe60806040526040516104c53803806104c5833981016040819052610022916102de565b61002e82826000610035565b50506103fb565b61003e83610061565b60008251118061004b5750805b1561005c5761005a83836100a1565b505b505050565b61006a816100cd565b6040516001600160a01b038216907fbc7cd75a20ee27fd9adebab32041f755214dbc6bffa90cc0225b39da2e5c2d3b90600090a250565b60606100c6838360405180606001604052806027815260200161049e60279139610180565b9392505050565b6001600160a01b0381163b61013f5760405162461bcd60e51b815260206004820152602d60248201527f455243313936373a206e657720696d706c656d656e746174696f6e206973206e60448201526c1bdd08184818dbdb9d1c9858dd609a1b60648201526084015b60405180910390fd5b7f360894a13ba1a3210667c828492db98dca3e2076cc3735a920a3ca505d382bbc80546001600160a01b0319166001600160a01b0392909216919091179055565b6060600080856001600160a01b03168560405161019d91906103ac565b600060405180830381855af49150503d80600081146101d8576040519150601f19603f3d011682016040523d82523d6000602084013e6101dd565b606091505b5090925090506101ef868383876101f9565b9695505050505050565b60608315610268578251600003610261576001600160a01b0385163b6102615760405162461bcd60e51b815260206004820152601d60248201527f416464726573733a2063616c6c20746f206e6f6e2d636f6e74726163740000006044820152606401610136565b5081610272565b610272838361027a565b949350505050565b81511561028a5781518083602001fd5b8060405162461bcd60e51b815260040161013691906103c8565b634e487b7160e01b600052604160045260246000fd5b60005b838110156102d55781810151838201526020016102bd565b50506000910152565b600080604083850312156102f157600080fd5b82516001600160a01b038116811461030857600080fd5b60208401519092506001600160401b038082111561032557600080fd5b818501915085601f83011261033957600080fd5b81518181111561034b5761034b6102a4565b604051601f8201601f19908116603f01168101908382118183101715610373576103736102a4565b8160405282815288602084870101111561038c57600080fd5b61039d8360208301602088016102ba565b80955050505050509250929050565b600082516103be8184602087016102ba565b9190910192915050565b60208152600082518060208401526103e78160408501602087016102ba565b601f01601f19169190910160400192915050565b6095806104096000396000f3fe608060405236601057600e6013565b005b600e5b601f601b6021565b6065565b565b600060607f360894a13ba1a3210667c828492db98dca3e2076cc3735a920a3ca505d382bbc5473ffffffffffffffffffffffffffffffffffffffff1690565b905090565b3660008037600080366000845af43d6000803e8080156083573d6000f35b3d6000fdfea164736f6c6343000813000a416464726573733a206c6f772d6c6576656c2064656c65676174652063616c6c206661696c6564a164736f6c6343000813000a60a06040523480156200001157600080fd5b50604051620023e8380380620023e8833981016040819052620000349162000113565b6001600160a01b0381166080526200004b62000052565b5062000145565b600054610100900460ff1615620000bf5760405162461bcd60e51b815260206004820152602760248201527f496e697469616c697a61626c653a20636f6e747261637420697320696e697469604482015266616c697a696e6760c81b606482015260840160405180910390fd5b60005460ff9081161462000111576000805460ff191660ff9081179091556040519081527f7f26b83ff96e1f2b6a682f133852f6798a09c465da95921460cefb38474024989060200160405180910390a15b565b6000602082840312156200012657600080fd5b81516001600160a01b03811681146200013e57600080fd5b9392505050565b60805161224f62000199600039600081816103d801528181610567015281816106fc0152818161079c0152818161091001528181610c0c01528181610d6501528181610e0501526113d2015261224f6000f3fe6080604052600436106101805760003560e01c80639229e120116100d6578063cf777df91161007f578063d561e48911610059578063d561e489146104a6578063f08a0323146104c6578063fa849015146104e657610180565b8063cf777df914610451578063d087d28814610471578063d2b0e7791461048657610180565b8063b61d27f6116100b0578063b61d27f6146103fc578063bb6aa2b41461041c578063c399ec881461043c57610180565b80639229e12014610389578063ad05234a146103a9578063b0d691fe146103c957610180565b80635a438970116101385780636e691f2f116101125780636e691f2f146102f157806375f2516714610311578063856dfd991461034157610180565b80635a438970146102835780635faac46b146102a35780636dd3bf74146102d157610180565b806347e1da2a1161016957806347e1da2a1461023b5780634a58db191461025b5780634d44560d1461026357610180565b80633a871cdd146101e65780633d6767f814610219575b34801561018c57600080fd5b507f6c9a6c4a39284e37ed1cf53d337577d14212a4870fb976a4366c693b939918d48054806101b757005b36600080373360601b365260008060143601600080855af190503d6000803e806101e0573d6000fd5b503d6000f35b3480156101f257600080fd5b50610206610201366004611bc7565b610506565b6040519081526020015b60405180910390f35b34801561022557600080fd5b50610239610234366004611c72565b61052c565b005b34801561024757600080fd5b50610239610256366004611d0c565b61055c565b6102396106fa565b34801561026f57600080fd5b5061023961027e366004611da6565b61077a565b34801561028f57600080fd5b5061023961029e366004611c72565b61081b565b3480156102af57600080fd5b506102c36102be366004611da6565b6108e9565b604051610210929190611dd2565b3480156102dd57600080fd5b506102396102ec366004611e2f565b610905565b3480156102fd57600080fd5b5061023961030c366004611e8b565b610995565b34801561031d57600080fd5b5061033161032c366004611ed6565b610b6c565b6040519015158152602001610210565b34801561034d57600080fd5b507f6c9a6c4a39284e37ed1cf53d337577d14212a4870fb976a4366c693b939918d4545b6040516001600160a01b039091168152602001610210565b34801561039557600080fd5b506102396103a4366004611ef3565b610b7f565b3480156103b557600080fd5b506102c36103c4366004611da6565b610bec565b3480156103d557600080fd5b507f0000000000000000000000000000000000000000000000000000000000000000610371565b34801561040857600080fd5b50610239610417366004611e2f565b610c01565b34801561042857600080fd5b50610239610437366004611c72565b610c8b565b34801561044857600080fd5b50610206610d45565b34801561045d57600080fd5b5061033161046c366004611ed6565b610dd1565b34801561047d57600080fd5b50610206610dde565b34801561049257600080fd5b506102396104a1366004611ef3565b610e34565b3480156104b257600080fd5b506102396104c1366004611f2c565b610e99565b3480156104d257600080fd5b506102396104e1366004611ed6565b6110cb565b3480156104f257600080fd5b50610239610501366004611c72565b61115a565b60006105106113c7565b61051a8484611441565b905061052582611507565b9392505050565b33301461054c5760405163d97d09c160e01b815260040160405180910390fd5b610557838383611554565b505050565b336001600160a01b037f000000000000000000000000000000000000000000000000000000000000000016146105a55760405163cb10477360e01b815260040160405180910390fd5b84811415806105be575082158015906105be5750828114155b156105dc5760405163150072e360e11b815260040160405180910390fd5b60008390036106885760005b858110156106825761067a87878381811061060557610605611faf565b905060200201602081019061061a9190611ed6565b600085858581811061062e5761062e611faf565b90506020028101906106409190611fc5565b8080601f0160208091040260200160405190810160405280939291908181526020018383808284376000920191909152506115f992505050565b6001016105e8565b506106f2565b60005b858110156106f0576106e88787838181106106a8576106a8611faf565b90506020020160208101906106bd9190611ed6565b8686848181106106cf576106cf611faf565b9050602002013585858581811061062e5761062e611faf565b60010161068b565b505b505050505050565b7f000000000000000000000000000000000000000000000000000000000000000060405163b760faf960e01b81523060048201526001600160a01b03919091169063b760faf99034906024016000604051808303818588803b15801561075f57600080fd5b505af1158015610773573d6000803e3d6000fd5b5050505050565b33301461079a5760405163d97d09c160e01b815260040160405180910390fd5b7f000000000000000000000000000000000000000000000000000000000000000060405163040b850f60e31b81526001600160a01b03848116600483015260248201849052919091169063205c287890604401600060405180830381600087803b15801561080757600080fd5b505af11580156106f2573d6000803e3d6000fd5b33301461083b5760405163d97d09c160e01b815260040160405180910390fd5b610846600484611799565b604051633cbcc2b960e21b81526001600160a01b0384169063f2f30ae490610874908590859060040161200c565b600060405180830381600087803b15801561088e57600080fd5b505af11580156108a2573d6000803e3d6000fd5b50506040516001600160a01b03861681527fcc87bd27eafb647c2f20f074fcdd0fe8d9c2171b9876dacd94c4a62149d4fe03925060200190505b60405180910390a1505050565b606060006108f9600385856118b9565b915091505b9250929050565b336001600160a01b037f0000000000000000000000000000000000000000000000000000000000000000161461094e5760405163cb10477360e01b815260040160405180910390fd5b61098f848484848080601f0160208091040260200160405190810160405280939291908181526020018383808284376000920191909152506119b392505050565b50505050565b3330146109b55760405163d97d09c160e01b815260040160405180910390fd5b806000816001600160a01b031663e445e7dd6040518163ffffffff1660e01b8152600401602060405180830381865afa1580156109f6573d6000803e3d6000fd5b505050506040513d601f19601f82011682018060405250810190610a1a9190612051565b6002811115610a2b57610a2b61203b565b03610a4157610a3c60018584611a23565b610adf565b6001816001600160a01b031663e445e7dd6040518163ffffffff1660e01b8152600401602060405180830381865afa158015610a81573d6000803e3d6000fd5b505050506040513d601f19601f82011682018060405250810190610aa59190612051565b6002811115610ab657610ab661203b565b03610ac757610a3c60028484611a23565b610ad360018584611a23565b610adf60028484611a23565b806001600160a01b0316630d638f306040518163ffffffff1660e01b8152600401600060405180830381600087803b158015610b1a57600080fd5b505af1158015610b2e573d6000803e3d6000fd5b50506040516001600160a01b03851692507fa20b2dba0769450542a688d94941808255eb735da2fa53df12ff98fc529ffd4e9150600090a250505050565b6000610b79600383611b42565b92915050565b333014610b9f5760405163d97d09c160e01b815260040160405180910390fd5b610bab60038383611a23565b6040516001600160a01b03821681527fae2356b2cb822c142448e45b195255df334895b014113d50bb822c311cddc855906020015b60405180910390a15050565b606060006108f9600485856118b9565b905090565b336001600160a01b037f00000000000000000000000000000000000000000000000000000000000000001614610c4a5760405163cb10477360e01b815260040160405180910390fd5b61098f848484848080601f0160208091040260200160405190810160405280939291908181526020018383808284376000920191909152506115f992505050565b610c9433610dd1565b610cb85760405163a841d6f560e01b81523360048201526024015b60405180910390fd5b610cc183610b6c565b610ce95760405163304106bf60e11b81526001600160a01b0384166004820152602401610caf565b60405163064acaab60e11b81526001600160a01b03841690630c95955690610d17908590859060040161200c565b600060405180830381600087803b158015610d3157600080fd5b505af11580156106f0573d6000803e3d6000fd5b6040516370a0823160e01b81523060048201526000906001600160a01b037f000000000000000000000000000000000000000000000000000000000000000016906370a08231906024015b602060405180830381865afa158015610dad573d6000803e3d6000fd5b505050506040513d601f19601f82011682018060405250810190610bfc9190612072565b6000610b79600483611b42565b604051631aab3f0d60e11b8152306004820152600060248201819052906001600160a01b037f000000000000000000000000000000000000000000000000000000000000000016906335567e1a90604401610d90565b333014610e545760405163d97d09c160e01b815260040160405180910390fd5b610e6060048383611a23565b6040516001600160a01b03821681527f779fb1c42fad72db3b3d13498dce770027f44544e8a1a5a9e06e530db8cd689290602001610be0565b600054610100900460ff1615808015610eb95750600054600160ff909116105b80610ed35750303b158015610ed3575060005460ff166001145b610f455760405162461bcd60e51b815260206004820152602e60248201527f496e697469616c697a61626c653a20636f6e747261637420697320616c72656160448201527f647920696e697469616c697a65640000000000000000000000000000000000006064820152608401610caf565b6000805460ff191660011790558015610f68576000805461ff0019166101001790555b838214610f885760405163150072e360e11b815260040160405180910390fd5b610f9186611b7c565b610fd46001600081905260036020527fa15bc60c955c405d20d9149c709e2460f1c2d9a497496a7f46004d1772c3054c80546001600160a01b0319169091179055565b6110176001600081905260046020527fabd6e7cb50984ff9c2f3e18a2660c3353dadf4e3291deeb275dae2cd1e44fe0580546001600160a01b0319169091179055565b60005b8481101561107d5761107586868381811061103757611037611faf565b905060200201602081019061104c9190611ed6565b85858481811061105e5761105e611faf565b90506020028101906110709190611fc5565b611554565b60010161101a565b5080156106f2576000805461ff0019169055604051600181527f7f26b83ff96e1f2b6a682f133852f6798a09c465da95921460cefb38474024989060200160405180910390a1505050505050565b3330146110eb5760405163d97d09c160e01b815260040160405180910390fd5b7f6c9a6c4a39284e37ed1cf53d337577d14212a4870fb976a4366c693b939918d45461111682611b7c565b816001600160a01b0316816001600160a01b03167f06be9a1bea257286cf2afa8205ed494ca9d6a4b41aa58d04238deebada20fb0c60405160405180910390a35050565b33301461117a5760405163d97d09c160e01b815260040160405180910390fd5b6040516301ffc9a760e01b81526329c791d960e01b600482015283906001600160a01b038216906301ffc9a790602401602060405180830381865afa1580156111c7573d6000803e3d6000fd5b505050506040513d601f19601f820116820180604052508101906111eb919061208b565b61120857604051639c9d882360e01b815260040160405180910390fd5b6000816001600160a01b031663e445e7dd6040518163ffffffff1660e01b8152600401602060405180830381865afa158015611248573d6000803e3d6000fd5b505050506040513d601f19601f8201168201806040525081019061126c9190612051565b600281111561127d5761127d61203b565b036112925761128d600185611799565b61132d565b6001816001600160a01b031663e445e7dd6040518163ffffffff1660e01b8152600401602060405180830381865afa1580156112d2573d6000803e3d6000fd5b505050506040513d601f19601f820116820180604052508101906112f69190612051565b60028111156113075761130761203b565b036113175761128d600285611799565b611322600185611799565b61132d600285611799565b6040516313861fb560e01b81526001600160a01b038216906313861fb59061135b908690869060040161200c565b600060405180830381600087803b15801561137557600080fd5b505af1158015611389573d6000803e3d6000fd5b50506040516001600160a01b03871692507fe9fdf38cc72369bf1f90f6adc9835796c285cba93070412e0e48413e63c5b9089150600090a250505050565b336001600160a01b037f0000000000000000000000000000000000000000000000000000000000000000161461143f5760405162461bcd60e51b815260206004820152601c60248201527f6163636f756e743a206e6f742066726f6d20456e747279506f696e74000000006044820152606401610caf565b565b60008080611453610140860186611fc5565b81019061146091906120c3565b9150915061146d82610b6c565b61147c57600192505050610b79565b6001600160a01b03821663971604c66114986020880188611ed6565b86846040518463ffffffff1660e01b81526004016114b8939291906121d7565b6020604051808303816000875af11580156114d7573d6000803e3d6000fd5b505050506040513d601f19601f820116820180604052508101906114fb9190612072565b95945050505050565b50565b801561150457604051600090339060001990849084818181858888f193505050503d8060008114610773576040519150601f19603f3d011682016040523d82523d6000602084013e610773565b61155f600384611799565b60405163064acaab60e11b81526001600160a01b03841690630c9595569061158d908590859060040161200c565b600060405180830381600087803b1580156115a757600080fd5b505af11580156115bb573d6000803e3d6000fd5b50506040516001600160a01b03861681527f702ed4645b59645b8a8b7dd88e069cb684a1170094eca847038827e03c1107a4925060200190506108dc565b600160008190526020527fcc69885fda6bcc1a4ace058b4a62bf5e179ea78fd58a1ccd71c22cc9b688792f546001600160a01b03165b60016001600160a01b03821611156116c357604051632b668a3760e21b81526001600160a01b0382169063ad9a28dc90611671908790879087906004016121d7565b600060405180830381600087803b15801561168b57600080fd5b505af115801561169f573d6000803e3d6000fd5b505050506001600160a01b039081166000908152600160205260409020541661162f565b6116ce8484846119b3565b50600160005260026020527fe90b7bceb6e7df5418fb78d8ee546e97c83a08bbccc01a0644d599ccd2a7c2e0546001600160a01b03165b60016001600160a01b038216111561098f57604051632b668a3760e21b81526001600160a01b0382169063ad9a28dc90611747908790879087906004016121d7565b600060405180830381600087803b15801561176157600080fd5b505af1158015611775573d6000803e3d6000fd5b505050506001600160a01b0390811660009081526002602052604090205416611705565b6001600160a01b038116158015906117bb57506001600160a01b038116600114155b6118075760405162461bcd60e51b815260206004820152601e60248201527f6974656d2063616e2774206265207a65726f206f722073656e74696e656c00006044820152606401610caf565b6001600160a01b03818116600090815260208490526040902054161561186f5760405162461bcd60e51b815260206004820152601260248201527f6974656d20616c726561647920616464656400000000000000000000000000006044820152606401610caf565b60016000818152602093909352604080842080546001600160a01b039485168087529286208054959091166001600160a01b03199586161790559190935280549091169091179055565b606060008267ffffffffffffffff8111156118d6576118d66120ad565b6040519080825280602002602001820160405280156118ff578160200160208202803683370190505b506001600160a01b0380861660009081526020889052604081205492945091165b6001600160a01b0381161580159061194257506001600160a01b038116600114155b801561194d57508482105b156119a4578084838151811061196557611965611faf565b6001600160a01b03928316602091820292909201810191909152918116600090815291889052604090912054168161199c816121ff565b925050611920565b90835291959194509092505050565b600080846001600160a01b031684846040516119cf9190612226565b60006040518083038185875af1925050503d8060008114611a0c576040519150601f19603f3d011682016040523d82523d6000602084013e611a11565b606091505b50915091508161077357805160208201fd5b6001600160a01b03811615801590611a4557506001600160a01b038116600114155b611a915760405162461bcd60e51b815260206004820152601e60248201527f6974656d2063616e2774206265207a65726f206f722073656e74696e656c00006044820152606401610caf565b6001600160a01b03828116600090815260208590526040902054811690821614611afd5760405162461bcd60e51b815260206004820152601960248201527f6974656d20616e64207072656974656d206d69736d61746368000000000000006044820152606401610caf565b6001600160a01b0390811660008181526020949094526040808520805494841686529085208054949093166001600160a01b0319948516179092559092528154169055565b600060016001600160a01b038316148015906105255750506001600160a01b03908116600090815260209290925260409091205416151590565b6001600160a01b038116611ba3576040516303988b8160e61b815260040160405180910390fd5b7f6c9a6c4a39284e37ed1cf53d337577d14212a4870fb976a4366c693b939918d455565b600080600060608486031215611bdc57600080fd5b833567ffffffffffffffff811115611bf357600080fd5b84016101608187031215611c0657600080fd5b95602085013595506040909401359392505050565b6001600160a01b038116811461150457600080fd5b60008083601f840112611c4257600080fd5b50813567ffffffffffffffff811115611c5a57600080fd5b6020830191508360208285010111156108fe57600080fd5b600080600060408486031215611c8757600080fd5b8335611c9281611c1b565b9250602084013567ffffffffffffffff811115611cae57600080fd5b611cba86828701611c30565b9497909650939450505050565b60008083601f840112611cd957600080fd5b50813567ffffffffffffffff811115611cf157600080fd5b6020830191508360208260051b85010111156108fe57600080fd5b60008060008060008060608789031215611d2557600080fd5b863567ffffffffffffffff80821115611d3d57600080fd5b611d498a838b01611cc7565b90985096506020890135915080821115611d6257600080fd5b611d6e8a838b01611cc7565b90965094506040890135915080821115611d8757600080fd5b50611d9489828a01611cc7565b979a9699509497509295939492505050565b60008060408385031215611db957600080fd5b8235611dc481611c1b565b946020939093013593505050565b604080825283519082018190526000906020906060840190828701845b82811015611e145781516001600160a01b031684529284019290840190600101611def565b5050506001600160a01b039490941692019190915250919050565b60008060008060608587031215611e4557600080fd5b8435611e5081611c1b565b935060208501359250604085013567ffffffffffffffff811115611e7357600080fd5b611e7f87828801611c30565b95989497509550505050565b600080600060608486031215611ea057600080fd5b8335611eab81611c1b565b92506020840135611ebb81611c1b565b91506040840135611ecb81611c1b565b809150509250925092565b600060208284031215611ee857600080fd5b813561052581611c1b565b60008060408385031215611f0657600080fd5b8235611f1181611c1b565b91506020830135611f2181611c1b565b809150509250929050565b600080600080600060608688031215611f4457600080fd5b8535611f4f81611c1b565b9450602086013567ffffffffffffffff80821115611f6c57600080fd5b611f7889838a01611cc7565b90965094506040880135915080821115611f9157600080fd5b50611f9e88828901611cc7565b969995985093965092949392505050565b634e487b7160e01b600052603260045260246000fd5b6000808335601e19843603018112611fdc57600080fd5b83018035915067ffffffffffffffff821115611ff757600080fd5b6020019150368190038213156108fe57600080fd5b60208152816020820152818360408301376000818301604090810191909152601f909201601f19160101919050565b634e487b7160e01b600052602160045260246000fd5b60006020828403121561206357600080fd5b81516003811061052557600080fd5b60006020828403121561208457600080fd5b5051919050565b60006020828403121561209d57600080fd5b8151801515811461052557600080fd5b634e487b7160e01b600052604160045260246000fd5b600080604083850312156120d657600080fd5b82356120e181611c1b565b9150602083013567ffffffffffffffff808211156120fe57600080fd5b818501915085601f83011261211257600080fd5b813581811115612124576121246120ad565b604051601f8201601f19908116603f0116810190838211818310171561214c5761214c6120ad565b8160405282815288602084870101111561216557600080fd5b8260208601602083013760006020848301015280955050505050509250929050565b60005b838110156121a257818101518382015260200161218a565b50506000910152565b600081518084526121c3816020860160208601612187565b601f01601f19169290920160200192915050565b6001600160a01b03841681528260208201526060604082015260006114fb60608301846121ab565b60006001820161221f57634e487b7160e01b600052601160045260246000fd5b5060010190565b60008251612238818460208701612187565b919091019291505056fea164736f6c6343000813000a",
  "devdoc": {
    "kind": "dev",
    "methods": {},
    "version": 1
  },
  "userdoc": {
    "kind": "user",
    "methods": {},
    "version": 1
  },
  "storageLayout": {
    "storage": [],
    "types": null
  }
}