{
  "address": "0xe2C03A87C78783d85C263B020E9AeFDa3525d69c",
  "abi": [
    {
      "inputs": [
        {
          "internalType": "contract ISecp256r1",
          "name": "_impl",
          "type": "address"
        }
      ],
      "stateMutability": "nonpayable",
      "type": "constructor"
    },
    {
      "anonymous": false,
      "inputs": [
        {
          "indexed": true,
          "internalType": "address",
          "name": "account",
          "type": "address"
        },
        {
          "indexed": false,
          "internalType": "bytes",
          "name": "oldPk",
          "type": "bytes"
        },
        {
          "indexed": false,
          "internalType": "bytes",
          "name": "newPk",
          "type": "bytes"
        }
      ],
      "name": "PkChanged",
      "type": "event"
    },
    {
      "inputs": [],
      "name": "NAME",
      "outputs": [
        {
          "internalType": "string",
          "name": "",
          "type": "string"
        }
      ],
      "stateMutability": "view",
      "type": "function"
    },
    {
      "inputs": [],
      "name": "VERSION",
      "outputs": [
        {
          "internalType": "string",
          "name": "",
          "type": "string"
        }
      ],
      "stateMutability": "view",
      "type": "function"
    },
    {
      "inputs": [
        {
          "internalType": "bytes",
          "name": "data",
          "type": "bytes"
        }
      ],
      "name": "enable",
      "outputs": [],
      "stateMutability": "payable",
      "type": "function"
    },
    {
      "inputs": [],
      "name": "impl",
      "outputs": [
        {
          "internalType": "contract ISecp256r1",
          "name": "",
          "type": "address"
        }
      ],
      "stateMutability": "view",
      "type": "function"
    },
    {
      "inputs": [
        {
          "internalType": "address",
          "name": "",
          "type": "address"
        }
      ],
      "name": "pks",
      "outputs": [
        {
          "internalType": "bytes",
          "name": "",
          "type": "bytes"
        }
      ],
      "stateMutability": "view",
      "type": "function"
    },
    {
      "inputs": [
        {
          "internalType": "bytes4",
          "name": "interfaceId",
          "type": "bytes4"
        }
      ],
      "name": "supportsInterface",
      "outputs": [
        {
          "internalType": "bool",
          "name": "",
          "type": "bool"
        }
      ],
      "stateMutability": "pure",
      "type": "function"
    },
    {
      "inputs": [
        {
          "internalType": "address",
          "name": "",
          "type": "address"
        },
        {
          "internalType": "bytes",
          "name": "",
          "type": "bytes"
        }
      ],
      "name": "validCaller",
      "outputs": [
        {
          "internalType": "bool",
          "name": "",
          "type": "bool"
        }
      ],
      "stateMutability": "pure",
      "type": "function"
    },
    {
      "inputs": [
        {
          "internalType": "address",
          "name": "account",
          "type": "address"
        },
        {
          "internalType": "bytes32",
          "name": "userOpHash",
          "type": "bytes32"
        },
        {
          "internalType": "bytes",
          "name": "signature",
          "type": "bytes"
        }
      ],
      "name": "validateSignature",
      "outputs": [
        {
          "internalType": "uint256",
          "name": "validationData",
          "type": "uint256"
        }
      ],
      "stateMutability": "payable",
      "type": "function"
    }
  ],
  "transactionHash": "0xfd12df3a18883f56edb310b56c2c47d490a3ec5f26bb457febf47410693f45ac",
  "args": [
    "0xebB3F7930b044f4F85263e1Ed99490CA1D5414b2"
  ],
  "numDeployments": 1,
  "solcInputHash": "b23988587d28d82ed6484bc5aecdcd50",
  "bytecode": "0x60a060405234801561001057600080fd5b50604051610f27380380610f2783398101604081905261002f91610040565b6001600160a01b0316608052610070565b60006020828403121561005257600080fd5b81516001600160a01b038116811461006957600080fd5b9392505050565b608051610e9561009260003960008181610105015261053c0152610e956000f3fe60806040526004361061007b5760003560e01c8063971604c61161004e578063971604c61461016c5780639ea9bd591461018d578063a3f4df7e146101ad578063ffa1ad74146101f657600080fd5b806301ffc9a7146100805780630c959556146100de5780638abf6077146100f35780639356375c1461013f575b600080fd5b34801561008c57600080fd5b506100c961009b366004610765565b7fffffffff000000000000000000000000000000000000000000000000000000001663052a2cc960e01b1490565b60405190151581526020015b60405180910390f35b6100f16100ec3660046107f7565b61023f565b005b3480156100ff57600080fd5b506101277f000000000000000000000000000000000000000000000000000000000000000081565b6040516001600160a01b0390911681526020016100d5565b34801561014b57600080fd5b5061015f61015a366004610855565b610342565b6040516100d591906108c0565b61017f61017a3660046108d3565b6103dc565b6040519081526020016100d5565b34801561019957600080fd5b506100c96101a836600461092d565b6105da565b3480156101b957600080fd5b5061015f6040518060400160405280601281526020017f576562617574686e2056616c696461746f72000000000000000000000000000081525081565b34801561020257600080fd5b5061015f6040518060400160405280600581526020017f302e302e3100000000000000000000000000000000000000000000000000000081525081565b336000908152602081905260408120805461025990610980565b80601f016020809104026020016040519081016040528092919081815260200182805461028590610980565b80156102d25780601f106102a7576101008083540402835291602001916102d2565b820191906000526020600020905b8154815290600101906020018083116102b557829003601f168201915b50503360009081526020819052604090209394506102f7925085915086905083610a1f565b50336001600160a01b03167f49a125229beaa1b288f0f807170a37c7a131925683b0250b113db84181bfb06682858560405161033593929190610ae0565b60405180910390a2505050565b6000602081905290815260409020805461035b90610980565b80601f016020809104026020016040519081016040528092919081815260200182805461038790610980565b80156103d45780601f106103a9576101008083540402835291602001916103d4565b820191906000526020600020905b8154815290600101906020018083116103b757829003601f168201915b505050505081565b6000606081808080806103f1888a018a610bb3565b93509350935093506000826104268c60405160200161041291815260200190565b604051602081830303815290604052610629565b8360405160200161043993929190610c60565b6040516020818303038152906040529050600060028260405161045c9190610ca3565b602060405180830381855afa158015610479573d6000803e3d6000fd5b5050506040513d601f19601f8201168201806040525081019061049c9190610cbf565b9050600285826040516020016104b3929190610cd8565b60408051601f19818403018152908290526104cd91610ca3565b602060405180830381855afa1580156104ea573d6000803e3d6000fd5b5050506040513d601f19601f8201168201806040525081019061050d9190610cbf565b6001600160a01b038e8116600090815260208190526040908190209051630ae7e17f60e41b8152989a509198507f0000000000000000000000000000000000000000000000000000000000000000169663ae7e17f0965061057a9550889450899350909150600401610cfa565b602060405180830381865afa158015610597573d6000803e3d6000fd5b505050506040513d601f19601f820116820180604052508101906105bb9190610d9c565b156105cb576000925050506105d2565b6001925050505b949350505050565b60405162461bcd60e51b815260206004820152600f60248201527f6e6f7420696d706c656d656e7465640000000000000000000000000000000000604482015260009060640160405180910390fd5b6060815160000361064857505060408051602081019091526000815290565b6000604051806060016040528060408152602001610e4960409139905060006006845160086106779190610dd4565b6106819190610e07565b90506000600685516106939190610e1b565b11156106a757806106a381610e2f565b9150505b60008167ffffffffffffffff8111156106c2576106c26109ba565b6040519080825280601f01601f1916602001820160405280156106ec576020820181803683370190505b509050600183016020820186875188015b80821015610758576003820191508151603f8160121c168501518453600184019350603f81600c1c168501518453600184019350603f8160061c168501518453600184019350603f81168501518453506001830192506106fd565b5092979650505050505050565b60006020828403121561077757600080fd5b81357fffffffff00000000000000000000000000000000000000000000000000000000811681146107a757600080fd5b9392505050565b60008083601f8401126107c057600080fd5b50813567ffffffffffffffff8111156107d857600080fd5b6020830191508360208285010111156107f057600080fd5b9250929050565b6000806020838503121561080a57600080fd5b823567ffffffffffffffff81111561082157600080fd5b61082d858286016107ae565b90969095509350505050565b80356001600160a01b038116811461085057600080fd5b919050565b60006020828403121561086757600080fd5b6107a782610839565b60005b8381101561088b578181015183820152602001610873565b50506000910152565b600081518084526108ac816020860160208601610870565b601f01601f19169290920160200192915050565b6020815260006107a76020830184610894565b600080600080606085870312156108e957600080fd5b6108f285610839565b935060208501359250604085013567ffffffffffffffff81111561091557600080fd5b610921878288016107ae565b95989497509550505050565b60008060006040848603121561094257600080fd5b61094b84610839565b9250602084013567ffffffffffffffff81111561096757600080fd5b610973868287016107ae565b9497909650939450505050565b600181811c9082168061099457607f821691505b6020821081036109b457634e487b7160e01b600052602260045260246000fd5b50919050565b634e487b7160e01b600052604160045260246000fd5b601f821115610a1a57600081815260208120601f850160051c810160208610156109f75750805b601f850160051c820191505b81811015610a1657828155600101610a03565b5050505b505050565b67ffffffffffffffff831115610a3757610a376109ba565b610a4b83610a458354610980565b836109d0565b6000601f841160018114610a7f5760008515610a675750838201355b600019600387901b1c1916600186901b178355610ad9565b600083815260209020601f19861690835b82811015610ab05786850135825560209485019460019092019101610a90565b5086821015610acd5760001960f88860031b161c19848701351681555b505060018560011b0183555b5050505050565b604081526000610af36040830186610894565b8281036020840152838152838560208301376000602085830101526020601f19601f860116820101915050949350505050565b600082601f830112610b3757600080fd5b813567ffffffffffffffff80821115610b5257610b526109ba565b604051601f8301601f19908116603f01168101908282118183101715610b7a57610b7a6109ba565b81604052838152866020858801011115610b9357600080fd5b836020870160208301376000602085830101528094505050505092915050565b60008060008060808587031215610bc957600080fd5b843567ffffffffffffffff80821115610be157600080fd5b610bed88838901610b26565b95506020870135915080821115610c0357600080fd5b610c0f88838901610b26565b94506040870135915080821115610c2557600080fd5b610c3188838901610b26565b93506060870135915080821115610c4757600080fd5b50610c5487828801610b26565b91505092959194509250565b60008451610c72818460208901610870565b845190830190610c86818360208901610870565b8451910190610c99818360208801610870565b0195945050505050565b60008251610cb5818460208701610870565b9190910192915050565b600060208284031215610cd157600080fd5b5051919050565b60008351610cea818460208801610870565b9190910191825250602001919050565b83815260006020606081840152610d146060840186610894565b838103604085015260008554610d2981610980565b80845260018281168015610d445760018114610d5e57610d8c565b60ff1984168688015282151560051b860187019450610d8c565b896000528660002060005b84811015610d845781548882018a0152908301908801610d69565b870188019550505b50929a9950505050505050505050565b600060208284031215610dae57600080fd5b815180151581146107a757600080fd5b634e487b7160e01b600052601160045260246000fd5b8082028115828204841417610deb57610deb610dbe565b92915050565b634e487b7160e01b600052601260045260246000fd5b600082610e1657610e16610df1565b500490565b600082610e2a57610e2a610df1565b500690565b600060018201610e4157610e41610dbe565b506001019056fe4142434445464748494a4b4c4d4e4f505152535455565758595a6162636465666768696a6b6c6d6e6f707172737475767778797a303132333435363738392d5fa164736f6c6343000813000a",
  "devdoc": {
    "kind": "dev",
    "methods": {
      "supportsInterface(bytes4)": {
        "details": "Returns true if this contract implements the interface defined by `interfaceId`. See the corresponding https://eips.ethereum.org/EIPS/eip-165#how-interfaces-are-identified[EIP section] to learn more about how these ids are created. This function call must use less than 30 000 gas."
      }
    },
    "version": 1
  },
  "userdoc": {
    "kind": "user",
    "methods": {},
    "version": 1
  },
  "storageLayout": {
    "storage": [
      {
        "astId": 312,
        "contract": "contracts/validators/p256/WebauthnValidator.sol:WebauthnValidator",
        "label": "pks",
        "offset": 0,
        "slot": "0",
        "type": "t_mapping(t_address,t_bytes_storage)"
      }
    ],
    "types": {
      "t_address": {
        "encoding": "inplace",
        "label": "address",
        "numberOfBytes": "20"
      },
      "t_bytes_storage": {
        "encoding": "bytes",
        "label": "bytes",
        "numberOfBytes": "32"
      },
      "t_mapping(t_address,t_bytes_storage)": {
        "encoding": "mapping",
        "key": "t_address",
        "label": "mapping(address => bytes)",
        "numberOfBytes": "32",
        "value": "t_bytes_storage"
      }
    }
  }
}