{
  "address": "0x6Ab747fFB8FEa6A06429552Edb92DC01aC91B354",
  "abi": [
    {
      "anonymous": false,
      "inputs": [
        {
          "indexed": true,
          "internalType": "address",
          "name": "account",
          "type": "address"
        },
        {
          "indexed": true,
          "internalType": "address",
          "name": "sessionKey",
          "type": "address"
        },
        {
          "indexed": false,
          "internalType": "uint48",
          "name": "validUntil",
          "type": "uint48"
        },
        {
          "indexed": false,
          "internalType": "uint48",
          "name": "validAfter",
          "type": "uint48"
        }
      ],
      "name": "NewSessionKey",
      "type": "event"
    },
    {
      "inputs": [],
      "name": "NAME",
      "outputs": [
        {
          "internalType": "string",
          "name": "",
          "type": "string"
        }
      ],
      "stateMutability": "view",
      "type": "function"
    },
    {
      "inputs": [],
      "name": "VERSION",
      "outputs": [
        {
          "internalType": "string",
          "name": "",
          "type": "string"
        }
      ],
      "stateMutability": "view",
      "type": "function"
    },
    {
      "inputs": [
        {
          "internalType": "bytes",
          "name": "data",
          "type": "bytes"
        }
      ],
      "name": "enable",
      "outputs": [],
      "stateMutability": "nonpayable",
      "type": "function"
    },
    {
      "inputs": [
        {
          "internalType": "address",
          "name": "sessionKey",
          "type": "address"
        },
        {
          "internalType": "address",
          "name": "account",
          "type": "address"
        }
      ],
      "name": "sessionKeyStorage",
      "outputs": [
        {
          "internalType": "uint48",
          "name": "validUntil",
          "type": "uint48"
        },
        {
          "internalType": "uint48",
          "name": "validAfter",
          "type": "uint48"
        }
      ],
      "stateMutability": "view",
      "type": "function"
    },
    {
      "inputs": [
        {
          "internalType": "address",
          "name": "account",
          "type": "address"
        },
        {
          "internalType": "bytes32",
          "name": "userOpHash",
          "type": "bytes32"
        },
        {
          "internalType": "bytes",
          "name": "signature",
          "type": "bytes"
        }
      ],
      "name": "validateSignature",
      "outputs": [
        {
          "internalType": "uint256",
          "name": "validationData",
          "type": "uint256"
        }
      ],
      "stateMutability": "payable",
      "type": "function"
    }
  ],
  "transactionHash": "0xb9cc6436a10dd3e9d917fbaae128fa1ee876ad6cbc58e5a3f79d0051a515ce6d",
  "args": [],
  "numDeployments": 1,
  "solcInputHash": "e7b5f1c1bc37ac4da0d4db039ee1af4c",
  "bytecode": "0x608060405234801561001057600080fd5b50610916806100206000396000f3fe60806040526004361061005a5760003560e01c8063a3f4df7e11610043578063a3f4df7e146100a7578063fbab6a7a146100fd578063ffa1ad741461016757600080fd5b80630c9595561461005f578063971604c614610081575b600080fd5b34801561006b57600080fd5b5061007f61007a366004610715565b6101b0565b005b61009461008f366004610773565b610339565b6040519081526020015b60405180910390f35b3480156100b357600080fd5b506100f06040518060400160405280601b81526020017f4f776e65722053657373696f6e204b65792056616c696461746f72000000000081525081565b60405161009e91906107cd565b34801561010957600080fd5b5061014861011836600461081b565b600060208181529281526040808220909352908152205465ffffffffffff80821691660100000000000090041682565b6040805165ffffffffffff93841681529290911660208301520161009e565b34801561017357600080fd5b506100f06040518060400160405280600581526020017f302e302e3100000000000000000000000000000000000000000000000000000081525081565b60006101bf601482848661084e565b6101c891610878565b60601c905060006101dd601a6014858761084e565b6101e6916108ad565b60d01c905060006101fb6020601a868861084e565b610204916108ad565b60d01c905065ffffffffffff8216811061028b5760405162461bcd60e51b815260206004820152603760248201527f4f776e657253657373696f6e4b657956616c696461746f723a20696e76616c6960448201527f642076616c6964556e74696c2f76616c6964416674657200000000000000000060648201526084015b60405180910390fd5b60408051808201825265ffffffffffff84811680835284821660208085018281526001600160a01b038a166000818152808452888120338083529085529089902097518854935188166601000000000000026bffffffffffffffffffffffff19909416971696909617919091179095558551928352820152919290917f31b5c77503fad62fe58a0293e3020e533a464b77d0a29f3495d61c90c09086c7910160405180910390a35050505050565b7f19457468657265756d205369676e6564204d6573736167653a0a3332000000006000908152601c849052603c812060006103aa8286868080601f01602080910402602001604051908101604052809392919081815260200183838082843760009201919091525061042192505050565b6001600160a01b03808216600090815260208181526040808320938c16835292905290812080549293509165ffffffffffff1690036103ef5760019350505050610419565b80546104139060009065ffffffffffff808216916601000000000000900416610445565b93505050505b949350505050565b6000806000610430858561047d565b9150915061043d816104c2565b509392505050565b600060d08265ffffffffffff16901b60a08465ffffffffffff16901b8561046d576000610470565b60015b60ff161717949350505050565b60008082516041036104b35760208301516040840151606085015160001a6104a78782858561060f565b945094505050506104bb565b506000905060025b9250929050565b60008160048111156104d6576104d66108f3565b036104de5750565b60018160048111156104f2576104f26108f3565b0361053f5760405162461bcd60e51b815260206004820152601860248201527f45434453413a20696e76616c6964207369676e617475726500000000000000006044820152606401610282565b6002816004811115610553576105536108f3565b036105a05760405162461bcd60e51b815260206004820152601f60248201527f45434453413a20696e76616c6964207369676e6174757265206c656e677468006044820152606401610282565b60038160048111156105b4576105b46108f3565b0361060c5760405162461bcd60e51b815260206004820152602260248201527f45434453413a20696e76616c6964207369676e6174757265202773272076616c604482015261756560f01b6064820152608401610282565b50565b6000807f7fffffffffffffffffffffffffffffff5d576e7357a4501ddfe92f46681b20a083111561064657506000905060036106ca565b6040805160008082526020820180845289905260ff881692820192909252606081018690526080810185905260019060a0016020604051602081039080840390855afa15801561069a573d6000803e3d6000fd5b5050604051601f1901519150506001600160a01b0381166106c3576000600192509250506106ca565b9150600090505b94509492505050565b60008083601f8401126106e557600080fd5b50813567ffffffffffffffff8111156106fd57600080fd5b6020830191508360208285010111156104bb57600080fd5b6000806020838503121561072857600080fd5b823567ffffffffffffffff81111561073f57600080fd5b61074b858286016106d3565b90969095509350505050565b80356001600160a01b038116811461076e57600080fd5b919050565b6000806000806060858703121561078957600080fd5b61079285610757565b935060208501359250604085013567ffffffffffffffff8111156107b557600080fd5b6107c1878288016106d3565b95989497509550505050565b600060208083528351808285015260005b818110156107fa578581018301518582016040015282016107de565b506000604082860101526040601f19601f8301168501019250505092915050565b6000806040838503121561082e57600080fd5b61083783610757565b915061084560208401610757565b90509250929050565b6000808585111561085e57600080fd5b8386111561086b57600080fd5b5050820193919092039150565b6bffffffffffffffffffffffff1981358181169160148510156108a55780818660140360031b1b83161692505b505092915050565b7fffffffffffff000000000000000000000000000000000000000000000000000081358181169160068510156108a55760069490940360031b84901b1690921692915050565b634e487b7160e01b600052602160045260246000fdfea164736f6c6343000813000a",
  "devdoc": {
    "kind": "dev",
    "methods": {},
    "version": 1
  },
  "userdoc": {
    "kind": "user",
    "methods": {},
    "version": 1
  },
  "storageLayout": {
    "storage": [
      {
        "astId": 9064,
        "contract": "contracts/validators/OwnerSessionKeyValidator.sol:OwnerSessionKeyValidator",
        "label": "sessionKeyStorage",
        "offset": 0,
        "slot": "0",
        "type": "t_mapping(t_address,t_mapping(t_address,t_struct(SessionKeyStorage)9037_storage))"
      }
    ],
    "types": {
      "t_address": {
        "encoding": "inplace",
        "label": "address",
        "numberOfBytes": "20"
      },
      "t_mapping(t_address,t_mapping(t_address,t_struct(SessionKeyStorage)9037_storage))": {
        "encoding": "mapping",
        "key": "t_address",
        "label": "mapping(address => mapping(address => struct SessionKeyStorage))",
        "numberOfBytes": "32",
        "value": "t_mapping(t_address,t_struct(SessionKeyStorage)9037_storage)"
      },
      "t_mapping(t_address,t_struct(SessionKeyStorage)9037_storage)": {
        "encoding": "mapping",
        "key": "t_address",
        "label": "mapping(address => struct SessionKeyStorage)",
        "numberOfBytes": "32",
        "value": "t_struct(SessionKeyStorage)9037_storage"
      },
      "t_struct(SessionKeyStorage)9037_storage": {
        "encoding": "inplace",
        "label": "struct SessionKeyStorage",
        "members": [
          {
            "astId": 9034,
            "contract": "contracts/validators/OwnerSessionKeyValidator.sol:OwnerSessionKeyValidator",
            "label": "validUntil",
            "offset": 0,
            "slot": "0",
            "type": "t_uint48"
          },
          {
            "astId": 9036,
            "contract": "contracts/validators/OwnerSessionKeyValidator.sol:OwnerSessionKeyValidator",
            "label": "validAfter",
            "offset": 6,
            "slot": "0",
            "type": "t_uint48"
          }
        ],
        "numberOfBytes": "32"
      },
      "t_uint48": {
        "encoding": "inplace",
        "label": "uint48",
        "numberOfBytes": "6"
      }
    }
  }
}