{
  "address": "0xD7EE019920CDFeb2456503136672a4A9aE2824e5",
  "abi": [
    {
      "anonymous": false,
      "inputs": [
        {
          "indexed": true,
          "internalType": "address",
          "name": "account",
          "type": "address"
        },
        {
          "indexed": true,
          "internalType": "address",
          "name": "sessionKey",
          "type": "address"
        },
        {
          "indexed": false,
          "internalType": "uint48",
          "name": "validUntil",
          "type": "uint48"
        },
        {
          "indexed": false,
          "internalType": "uint48",
          "name": "validAfter",
          "type": "uint48"
        }
      ],
      "name": "NewSessionKey",
      "type": "event"
    },
    {
      "inputs": [],
      "name": "NAME",
      "outputs": [
        {
          "internalType": "string",
          "name": "",
          "type": "string"
        }
      ],
      "stateMutability": "view",
      "type": "function"
    },
    {
      "inputs": [],
      "name": "VERSION",
      "outputs": [
        {
          "internalType": "string",
          "name": "",
          "type": "string"
        }
      ],
      "stateMutability": "view",
      "type": "function"
    },
    {
      "inputs": [
        {
          "internalType": "bytes",
          "name": "data",
          "type": "bytes"
        }
      ],
      "name": "enable",
      "outputs": [],
      "stateMutability": "payable",
      "type": "function"
    },
    {
      "inputs": [
        {
          "internalType": "address",
          "name": "sessionKey",
          "type": "address"
        },
        {
          "internalType": "address",
          "name": "account",
          "type": "address"
        }
      ],
      "name": "sessionKeyStorage",
      "outputs": [
        {
          "internalType": "uint48",
          "name": "validUntil",
          "type": "uint48"
        },
        {
          "internalType": "uint48",
          "name": "validAfter",
          "type": "uint48"
        }
      ],
      "stateMutability": "view",
      "type": "function"
    },
    {
      "inputs": [
        {
          "internalType": "bytes4",
          "name": "interfaceId",
          "type": "bytes4"
        }
      ],
      "name": "supportsInterface",
      "outputs": [
        {
          "internalType": "bool",
          "name": "",
          "type": "bool"
        }
      ],
      "stateMutability": "pure",
      "type": "function"
    },
    {
      "inputs": [
        {
          "internalType": "address",
          "name": "caller",
          "type": "address"
        },
        {
          "internalType": "bytes",
          "name": "",
          "type": "bytes"
        }
      ],
      "name": "validCaller",
      "outputs": [
        {
          "internalType": "bool",
          "name": "",
          "type": "bool"
        }
      ],
      "stateMutability": "view",
      "type": "function"
    },
    {
      "inputs": [
        {
          "internalType": "address",
          "name": "account",
          "type": "address"
        },
        {
          "internalType": "bytes32",
          "name": "userOpHash",
          "type": "bytes32"
        },
        {
          "internalType": "bytes",
          "name": "signature",
          "type": "bytes"
        }
      ],
      "name": "validateSignature",
      "outputs": [
        {
          "internalType": "uint256",
          "name": "validationData",
          "type": "uint256"
        }
      ],
      "stateMutability": "payable",
      "type": "function"
    }
  ],
  "transactionHash": "0xcebd86ba1924084e452866346a8a182a3a764bdfecd2845b827820554a13f53c",
  "args": [],
  "numDeployments": 2,
  "solcInputHash": "d8accbfad6f64bb453cd9c6faf004ee1",
  "bytecode": "0x6080806040523461001657610831908161001c8239f35b600080fdfe608060408181526004918236101561001657600080fd5b600092833560e01c91826301ffc9a7146103c9575081630c95955614610232578163971604c6146101e35781639ea9bd591461018a57508063a3f4df7e14610138578063fbab6a7a146100cb5763ffa1ad741461007257600080fd5b346100c757816003193601126100c7576100c39061008e610448565b90600582527f302e302e310000000000000000000000000000000000000000000000000000006020830152519182918261047e565b0390f35b5080fd5b50346100c757806003193601126100c7576100e4610432565b602435906001600160a01b03908183168093036101345716835260208381528284209184529081529181902054905165ffffffffffff808316825260309290921c90911691810191909152604090f35b8480fd5b50346100c757816003193601126100c7576100c390610155610448565b90601b82527f4f776e65722053657373696f6e204b65792056616c696461746f7200000000006020830152519182918261047e565b9050346101df57816003193601126101df576101a4610432565b926024359067ffffffffffffffff82116101dc5750926101cc6101d3926020953691016103ff565b50506107d9565b90519015158152f35b80fd5b8280fd5b905060603660031901126101df576101f9610432565b926044359067ffffffffffffffff82116101dc57509261022161022b926020953691016103ff565b91602435906104c7565b9051908152f35b9050602091826003193601126103c55767ffffffffffffffff9082358281116103c15761026290369085016103ff565b939094846014116103bd57853560601c9585601a116103b957601481013560d01c9582116103b957601a013560d01c9384861115610352578351928385019182118483101761033f5750835284825280820184815286885287825283882033808a5292528388209251835491516bffffffffffffffffffffffff1990921665ffffffffffff9182161760309290921b6bffffffffffff0000000000001691909117909255915193811684529091166020830152907f31b5c77503fad62fe58a0293e3020e533a464b77d0a29f3495d61c90c09086c790604090a380f35b634e487b7160e01b895260419052602488fd5b50608492519162461bcd60e51b8352820152603760248201527f4f776e657253657373696f6e4b657956616c696461746f723a20696e76616c6960448201527f642076616c6964556e74696c2f76616c696441667465720000000000000000006064820152fd5b8780fd5b8680fd5b8580fd5b8380fd5b8491346101df5760203660031901126101df573563ffffffff60e01b81168091036101df5763052a2cc960e01b14815260209150f35b9181601f8401121561042d5782359167ffffffffffffffff831161042d576020838186019501011161042d57565b600080fd5b600435906001600160a01b038216820361042d57565b604051906040820182811067ffffffffffffffff82111761046857604052565b634e487b7160e01b600052604160045260246000fd5b6020808252825181830181905290939260005b8281106104b357505060409293506000838284010152601f8019910116010190565b818101860151848201604001528501610491565b909193926000927f19457468657265756d205369676e6564204d6573736167653a0a3332000000008452601c52603c83209067ffffffffffffffff958682116105ea5760405196601f8301601f19908116603f01168801908111888210176105d6576040528187523682820111610134579561055e92856020846105569560409a9b8387013784010152610718565b9190916105fe565b6001600160a01b0380911683528260205283832091168252602052205465ffffffffffff8116156105d05760a01b79ffffffffffff00000000000000000000000000000000000000007fffffffffffff0000000000000000000000000000000000000000000000000000821691161790565b50600190565b634e487b7160e01b86526041600452602486fd5b634e487b7160e01b85526041600452602485fd5b6005811015610702578061060f5750565b6001810361065c5760405162461bcd60e51b815260206004820152601860248201527f45434453413a20696e76616c6964207369676e617475726500000000000000006044820152606490fd5b600281036106a95760405162461bcd60e51b815260206004820152601f60248201527f45434453413a20696e76616c6964207369676e6174757265206c656e677468006044820152606490fd5b6003146106b257565b60405162461bcd60e51b815260206004820152602260248201527f45434453413a20696e76616c6964207369676e6174757265202773272076616c604482015261756560f01b6064820152608490fd5b634e487b7160e01b600052602160045260246000fd5b90604181511460001461074657610742916020820151906060604084015193015160001a90610750565b9091565b5050600090600290565b9291907f7fffffffffffffffffffffffffffffff5d576e7357a4501ddfe92f46681b20a083116107cd5791608094939160ff602094604051948552168484015260408301526060820152600093849182805260015afa156107c05781516001600160a01b038116156105d0579190565b50604051903d90823e3d90fd5b50505050600090600390565b6001600160a01b036000911681528060205260408120338252602052604081205465ffffffffffff90818160301c1642111561081f5716421161081c5750600190565b90565b50509056fea164736f6c6343000813000a",
  "devdoc": {
    "kind": "dev",
    "methods": {
      "supportsInterface(bytes4)": {
        "details": "Returns true if this contract implements the interface defined by `interfaceId`. See the corresponding https://eips.ethereum.org/EIPS/eip-165#how-interfaces-are-identified[EIP section] to learn more about how these ids are created. This function call must use less than 30 000 gas."
      }
    },
    "version": 1
  },
  "userdoc": {
    "kind": "user",
    "methods": {},
    "version": 1
  },
  "storageLayout": {
    "storage": [
      {
        "astId": 10953,
        "contract": "contracts/validators/sessionkey/OwnerSessionKeyValidator.sol:OwnerSessionKeyValidator",
        "label": "sessionKeyStorage",
        "offset": 0,
        "slot": "0",
        "type": "t_mapping(t_address,t_mapping(t_address,t_struct(SessionKeyStorage)10926_storage))"
      }
    ],
    "types": {
      "t_address": {
        "encoding": "inplace",
        "label": "address",
        "numberOfBytes": "20"
      },
      "t_mapping(t_address,t_mapping(t_address,t_struct(SessionKeyStorage)10926_storage))": {
        "encoding": "mapping",
        "key": "t_address",
        "label": "mapping(address => mapping(address => struct SessionKeyStorage))",
        "numberOfBytes": "32",
        "value": "t_mapping(t_address,t_struct(SessionKeyStorage)10926_storage)"
      },
      "t_mapping(t_address,t_struct(SessionKeyStorage)10926_storage)": {
        "encoding": "mapping",
        "key": "t_address",
        "label": "mapping(address => struct SessionKeyStorage)",
        "numberOfBytes": "32",
        "value": "t_struct(SessionKeyStorage)10926_storage"
      },
      "t_struct(SessionKeyStorage)10926_storage": {
        "encoding": "inplace",
        "label": "struct SessionKeyStorage",
        "members": [
          {
            "astId": 10923,
            "contract": "contracts/validators/sessionkey/OwnerSessionKeyValidator.sol:OwnerSessionKeyValidator",
            "label": "validUntil",
            "offset": 0,
            "slot": "0",
            "type": "t_uint48"
          },
          {
            "astId": 10925,
            "contract": "contracts/validators/sessionkey/OwnerSessionKeyValidator.sol:OwnerSessionKeyValidator",
            "label": "validAfter",
            "offset": 6,
            "slot": "0",
            "type": "t_uint48"
          }
        ],
        "numberOfBytes": "32"
      },
      "t_uint48": {
        "encoding": "inplace",
        "label": "uint48",
        "numberOfBytes": "6"
      }
    }
  }
}