{
  "address": "0x8f97C89e066DA81b7f21C54863eF1947905b8CEa",
  "abi": [
    {
      "inputs": [
        {
          "internalType": "contract ISecp256r1",
          "name": "_impl",
          "type": "address"
        }
      ],
      "stateMutability": "nonpayable",
      "type": "constructor"
    },
    {
      "anonymous": false,
      "inputs": [
        {
          "indexed": true,
          "internalType": "address",
          "name": "account",
          "type": "address"
        },
        {
          "indexed": false,
          "internalType": "bytes",
          "name": "oldPk",
          "type": "bytes"
        },
        {
          "indexed": false,
          "internalType": "bytes",
          "name": "newPk",
          "type": "bytes"
        }
      ],
      "name": "PkChanged",
      "type": "event"
    },
    {
      "inputs": [],
      "name": "NAME",
      "outputs": [
        {
          "internalType": "string",
          "name": "",
          "type": "string"
        }
      ],
      "stateMutability": "view",
      "type": "function"
    },
    {
      "inputs": [],
      "name": "VERSION",
      "outputs": [
        {
          "internalType": "string",
          "name": "",
          "type": "string"
        }
      ],
      "stateMutability": "view",
      "type": "function"
    },
    {
      "inputs": [
        {
          "internalType": "bytes",
          "name": "data",
          "type": "bytes"
        }
      ],
      "name": "enable",
      "outputs": [],
      "stateMutability": "payable",
      "type": "function"
    },
    {
      "inputs": [],
      "name": "impl",
      "outputs": [
        {
          "internalType": "contract ISecp256r1",
          "name": "",
          "type": "address"
        }
      ],
      "stateMutability": "view",
      "type": "function"
    },
    {
      "inputs": [
        {
          "internalType": "address",
          "name": "",
          "type": "address"
        }
      ],
      "name": "pks",
      "outputs": [
        {
          "internalType": "bytes",
          "name": "",
          "type": "bytes"
        }
      ],
      "stateMutability": "view",
      "type": "function"
    },
    {
      "inputs": [
        {
          "internalType": "bytes4",
          "name": "interfaceId",
          "type": "bytes4"
        }
      ],
      "name": "supportsInterface",
      "outputs": [
        {
          "internalType": "bool",
          "name": "",
          "type": "bool"
        }
      ],
      "stateMutability": "pure",
      "type": "function"
    },
    {
      "inputs": [
        {
          "internalType": "address",
          "name": "",
          "type": "address"
        },
        {
          "internalType": "bytes",
          "name": "",
          "type": "bytes"
        }
      ],
      "name": "validCaller",
      "outputs": [
        {
          "internalType": "bool",
          "name": "",
          "type": "bool"
        }
      ],
      "stateMutability": "pure",
      "type": "function"
    },
    {
      "inputs": [
        {
          "internalType": "address",
          "name": "account",
          "type": "address"
        },
        {
          "internalType": "bytes32",
          "name": "userOpHash",
          "type": "bytes32"
        },
        {
          "internalType": "bytes",
          "name": "signature",
          "type": "bytes"
        }
      ],
      "name": "validateSignature",
      "outputs": [
        {
          "internalType": "uint256",
          "name": "validationData",
          "type": "uint256"
        }
      ],
      "stateMutability": "payable",
      "type": "function"
    }
  ],
  "transactionHash": "0x3ef4625d37ed7940d6fb7163409a3ea128d71aac879f756d2a1a96d3731fe5b5",
  "args": [
    "0x387A688012Fc0ec588fdab471f8c000526b2F952"
  ],
  "numDeployments": 2,
  "solcInputHash": "23f21117f22f82b6c8f285345928df93",
  "bytecode": "0x60a060405234801561001057600080fd5b50604051610aa1380380610aa183398101604081905261002f91610040565b6001600160a01b0316608052610070565b60006020828403121561005257600080fd5b81516001600160a01b038116811461006957600080fd5b9392505050565b608051610a106100916000396000818160ed01526103c80152610a106000f3fe60806040526004361061007b5760003560e01c8063971604c61161004e578063971604c6146101545780639ea9bd5914610175578063a3f4df7e14610195578063ffa1ad74146101de57600080fd5b806301ffc9a7146100805780630c959556146100c65780638abf6077146100db5780639356375c14610127575b600080fd5b34801561008c57600080fd5b506100b161009b36600461054c565b6001600160e01b03191663052a2cc960e01b1490565b60405190151581526020015b60405180910390f35b6100d96100d43660046105c6565b610227565b005b3480156100e757600080fd5b5061010f7f000000000000000000000000000000000000000000000000000000000000000081565b6040516001600160a01b0390911681526020016100bd565b34801561013357600080fd5b50610147610142366004610624565b61032a565b6040516100bd919061068f565b6101676101623660046106a2565b6103c4565b6040519081526020016100bd565b34801561018157600080fd5b506100b16101903660046106fc565b6104fd565b3480156101a157600080fd5b506101476040518060400160405280600e81526020017f503235362056616c696461746f7200000000000000000000000000000000000081525081565b3480156101ea57600080fd5b506101476040518060400160405280600581526020017f302e302e3100000000000000000000000000000000000000000000000000000081525081565b33600090815260208190526040812080546102419061074f565b80601f016020809104026020016040519081016040528092919081815260200182805461026d9061074f565b80156102ba5780601f1061028f576101008083540402835291602001916102ba565b820191906000526020600020905b81548152906001019060200180831161029d57829003601f168201915b50503360009081526020819052604090209394506102df9250859150869050836107ee565b50336001600160a01b03167f49a125229beaa1b288f0f807170a37c7a131925683b0250b113db84181bfb06682858560405161031d939291906108d8565b60405180910390a2505050565b600060208190529081526040902080546103439061074f565b80601f016020809104026020016040519081016040528092919081815260200182805461036f9061074f565b80156103bc5780601f10610391576101008083540402835291602001916103bc565b820191906000526020600020905b81548152906001019060200180831161039f57829003601f168201915b505050505081565b60007f00000000000000000000000000000000000000000000000000000000000000006001600160a01b031663ae7e17f060028660405160200161040a91815260200190565b60408051601f198184030181529082905261042491610908565b602060405180830381855afa158015610441573d6000803e3d6000fd5b5050506040513d601f19601f820116820180604052508101906104649190610924565b6001600160a01b0388166000908152602081905260409081902090516001600160e01b031960e085901b1681526104a39291889188919060040161093d565b602060405180830381865afa1580156104c0573d6000803e3d6000fd5b505050506040513d601f19601f820116820180604052508101906104e491906109e1565b156104f1575060006104f5565b5060015b949350505050565b60405162461bcd60e51b815260206004820152600f60248201527f6e6f7420696d706c656d656e7465640000000000000000000000000000000000604482015260009060640160405180910390fd5b60006020828403121561055e57600080fd5b81356001600160e01b03198116811461057657600080fd5b9392505050565b60008083601f84011261058f57600080fd5b50813567ffffffffffffffff8111156105a757600080fd5b6020830191508360208285010111156105bf57600080fd5b9250929050565b600080602083850312156105d957600080fd5b823567ffffffffffffffff8111156105f057600080fd5b6105fc8582860161057d565b90969095509350505050565b80356001600160a01b038116811461061f57600080fd5b919050565b60006020828403121561063657600080fd5b61057682610608565b60005b8381101561065a578181015183820152602001610642565b50506000910152565b6000815180845261067b81602086016020860161063f565b601f01601f19169290920160200192915050565b6020815260006105766020830184610663565b600080600080606085870312156106b857600080fd5b6106c185610608565b935060208501359250604085013567ffffffffffffffff8111156106e457600080fd5b6106f08782880161057d565b95989497509550505050565b60008060006040848603121561071157600080fd5b61071a84610608565b9250602084013567ffffffffffffffff81111561073657600080fd5b6107428682870161057d565b9497909650939450505050565b600181811c9082168061076357607f821691505b60208210810361078357634e487b7160e01b600052602260045260246000fd5b50919050565b634e487b7160e01b600052604160045260246000fd5b601f8211156107e957600081815260208120601f850160051c810160208610156107c65750805b601f850160051c820191505b818110156107e5578281556001016107d2565b5050505b505050565b67ffffffffffffffff83111561080657610806610789565b61081a83610814835461074f565b8361079f565b6000601f84116001811461084e57600085156108365750838201355b600019600387901b1c1916600186901b1783556108a8565b600083815260209020601f19861690835b8281101561087f578685013582556020948501946001909201910161085f565b508682101561089c5760001960f88860031b161c19848701351681555b505060018560011b0183555b5050505050565b81835281816020850137506000828201602090810191909152601f909101601f19169091010190565b6040815260006108eb6040830186610663565b82810360208401526108fe8185876108af565b9695505050505050565b6000825161091a81846020870161063f565b9190910192915050565b60006020828403121561093657600080fd5b5051919050565b848152600060206060818401526109586060840186886108af565b83810360408501526000855461096d8161074f565b8084526001828116801561098857600181146109a2576109d0565b60ff1984168688015282151560051b8601870194506109d0565b896000528660002060005b848110156109c85781548882018a01529083019088016109ad565b870188019550505b50929b9a5050505050505050505050565b6000602082840312156109f357600080fd5b8151801515811461057657600080fdfea164736f6c6343000813000a",
  "devdoc": {
    "kind": "dev",
    "methods": {
      "supportsInterface(bytes4)": {
        "details": "Returns true if this contract implements the interface defined by `interfaceId`. See the corresponding https://eips.ethereum.org/EIPS/eip-165#how-interfaces-are-identified[EIP section] to learn more about how these ids are created. This function call must use less than 30 000 gas."
      }
    },
    "version": 1
  },
  "userdoc": {
    "kind": "user",
    "methods": {},
    "version": 1
  },
  "storageLayout": {
    "storage": [
      {
        "astId": 9732,
        "contract": "contracts/validators/p256/P256Validator.sol:P256Validator",
        "label": "pks",
        "offset": 0,
        "slot": "0",
        "type": "t_mapping(t_address,t_bytes_storage)"
      }
    ],
    "types": {
      "t_address": {
        "encoding": "inplace",
        "label": "address",
        "numberOfBytes": "20"
      },
      "t_bytes_storage": {
        "encoding": "bytes",
        "label": "bytes",
        "numberOfBytes": "32"
      },
      "t_mapping(t_address,t_bytes_storage)": {
        "encoding": "mapping",
        "key": "t_address",
        "label": "mapping(address => bytes)",
        "numberOfBytes": "32",
        "value": "t_bytes_storage"
      }
    }
  }
}