{
  "address": "0x7F805c1078EDF7b23c025Fa0dD024c2Fb1E86417",
  "abi": [
    {
      "inputs": [],
      "name": "nn",
      "outputs": [
        {
          "internalType": "uint256",
          "name": "",
          "type": "uint256"
        }
      ],
      "stateMutability": "view",
      "type": "function"
    },
    {
      "inputs": [],
      "name": "pp",
      "outputs": [
        {
          "internalType": "uint256",
          "name": "",
          "type": "uint256"
        }
      ],
      "stateMutability": "view",
      "type": "function"
    },
    {
      "inputs": [
        {
          "internalType": "bytes32",
          "name": "message",
          "type": "bytes32"
        },
        {
          "internalType": "bytes",
          "name": "signature",
          "type": "bytes"
        },
        {
          "internalType": "bytes",
          "name": "publicKey",
          "type": "bytes"
        }
      ],
      "name": "validateSignature",
      "outputs": [
        {
          "internalType": "bool",
          "name": "",
          "type": "bool"
        }
      ],
      "stateMutability": "view",
      "type": "function"
    }
  ],
  "transactionHash": "0x39fdf337f0fe1dedc8b9aa45e6ad63a36138b4966d795b5a93d3baa0949cf5c3",
  "args": [],
  "numDeployments": 1,
  "solcInputHash": "23f21117f22f82b6c8f285345928df93",
  "bytecode": "0x608060405234801561001057600080fd5b50610ab3806100206000396000f3fe608060405234801561001057600080fd5b50600436106100415760003560e01c806372a4c30f1461004657806391327ec61461007d578063ae7e17f014610098575b600080fd5b61006a7bffffffff00000000000000004319055258e8617b0c46353d039cdaae1981565b6040519081526020015b60405180910390f35b61006a6ffffffffeffffffffffffffffffffffff60601b1981565b6100ab6100a63660046109b4565b6100bb565b6040519015158152602001610074565b60006100c5610903565b6100d185870187610a2e565b60208301528082527bffffffff00000000000000004319055258e8617b0c46353d039cdaae19111580610125575060208101517bffffffff00000000000000004319055258e8617b0c46353d039cdaae1911155b1561013457600091505061017b565b61013c610903565b61014884860186610a2e565b6020830181905281835260009161015e91610184565b83516020850151919250610175918391908c610365565b93505050505b95945050505050565b61018c610921565b604051806060016040528060008152602001600081526020016000815250816000601081106101bd576101bd610a50565b602002018190525060405180606001604052808481526020018381526020016001815250816001601081106101f4576101f4610a50565b602002015261020a8160015b6020020151610453565b60408201526102298160015b60200201518260025b60200201516104b5565b6060828101919091526040805191820181527f6b17d1f2e12c4247f8bce6e563a440f277037d812deb33a0f4a13945d898c29682527f4fe342e2fe1a7f9b8ee7eb4a7c0f9e162bce33576b315ececbb6406837bf51f5602083015260019082015260808201526102a38160045b602002015182600161021f565b60a08201526102b3816004610216565b60c08201526102cc8160045b602002015182600361021f565b60e08201526102dc816004610200565b6101008201526102ed816008610296565b6101208201526102fe816008610216565b61014082015261030f8160086102bf565b61016082015260808101516103269082600861021f565b61018082015261033781600c610296565b6101a082015261034881600c610216565b6101c082015261035981600c6102bf565b6101e082015292915050565b60007bffffffff00000000000000004319055258e8617b0c46353d039cdaae19841015806103b057507bffffffff00000000000000004319055258e8617b0c46353d039cdaae198310155b156103bd5750600061044b565b60006103e6847bffffffff00000000000000004319055258e8617b0c46353d039cdaae19610529565b905060007bffffffff00000000000000004319055258e8617b0c46353d039cdaae19828509905060007bffffffff00000000000000004319055258e8617b0c46353d039cdaae1983880990506000806104408a8585610547565b508914955050505050505b949350505050565b61047760405180606001604052806000815260200160008152602001600081525090565b6000806000610493856000015186602001518760400151610633565b6040805160608101825293845260208401929092529082015295945050505050565b6104d960405180606001604052806000815260200160008152602001600081525090565b6000806000610504866000015187602001518860400151886000015189602001518a604001516106ee565b6040805160608101825293845260208401929092529082015293505050505b92915050565b60006105408361053a600285610a7c565b8461081a565b9392505050565b6000808080806080815b811561061557821561058257610568858585610633565b9196509450925061057a858585610633565b919650945092505b50600c60fc89901c1660fe88901c1780156105f8576105f08585858d85601081106105af576105af610a50565b6020020151518e86601081106105c7576105c7610a50565b6020020151602001518f87601081106105e2576105e2610a50565b6020020151604001516106ee565b919650945092505b600298891b989790971b968161060d81610a8f565b925050610551565b61062085858561086e565b909750955050505050505b935093915050565b60008060006ffffffffeffffffffffffffffffffffff60601b198085860981828283097fffffffff00000001000000000000000000000000fffffffffffffffffffffffc099050818788098283828b0960040983848384096008099150838385868d8e09600309089250838160020984848509818110156106b15785015b039650868110156106bf5783015b838782038409955050808510156106d557938201935b9093039250808086880960020991505093509350939050565b60008060008660000361070857508491508390508261080e565b8360000361071d57508791508690508561080e565b6ffffffffeffffffffffffffffffffffff60601b19808889098186870982818d0983838b0984858a85098e0985868e87098c09868b8f088484101561076157928701925b84840393508784600209888182099050888186098484101561078257928901925b898585036002099350898485099c50898288099650898a8860020982089150818d10156107ae579b89019b5b818d039c5089818b87600209099450508b8610156107cb57948801945b888c870384099a50838b10156107e057998801995b838b039a50888789089750888283099050878110156107fc5788015b88858983030999505050505050505050505b96509650969350505050565b60008184111561082a5781840693505b60405160208152602080820152602060408201528460608201528360808201528260a082015260208160c08360056105dcfa80801561004157505051949350505050565b600080826000036108845750600090508061062b565b60006108a4846ffffffffeffffffffffffffffffffffff60601b19610529565b905060006ffffffffeffffffffffffffffffffffff60601b1982830990506ffffffffeffffffffffffffffffffffff60601b1981880993506ffffffffeffffffffffffffffffffffff60601b1980838309870992505050935093915050565b60405180604001604052806002906020820280368337509192915050565b6040518061020001604052806010905b61095560405180606001604052806000815260200160008152602001600081525090565b8152602001906001900390816109315790505090565b60008083601f84011261097d57600080fd5b50813567ffffffffffffffff81111561099557600080fd5b6020830191508360208285010111156109ad57600080fd5b9250929050565b6000806000806000606086880312156109cc57600080fd5b85359450602086013567ffffffffffffffff808211156109eb57600080fd5b6109f789838a0161096b565b90965094506040880135915080821115610a1057600080fd5b50610a1d8882890161096b565b969995985093965092949392505050565b60008060408385031215610a4157600080fd5b50508035926020909101359150565b634e487b7160e01b600052603260045260246000fd5b634e487b7160e01b600052601160045260246000fd5b8181038181111561052357610523610a66565b600081610a9e57610a9e610a66565b50600019019056fea164736f6c6343000813000a",
  "devdoc": {
    "kind": "dev",
    "methods": {},
    "version": 1
  },
  "userdoc": {
    "kind": "user",
    "methods": {},
    "version": 1
  },
  "storageLayout": {
    "storage": [],
    "types": null
  }
}