{
  "address": "0xE33DB545fcFb413cbeaC0a83f3acD9C9ae283f02",
  "abi": [
    {
      "inputs": [
        {
          "internalType": "contract IEntryPoint",
          "name": "_entryPoint",
          "type": "address"
        },
        {
          "internalType": "address",
          "name": "_signer",
          "type": "address"
        }
      ],
      "stateMutability": "nonpayable",
      "type": "constructor"
    },
    {
      "anonymous": false,
      "inputs": [
        {
          "indexed": true,
          "internalType": "address",
          "name": "previousOwner",
          "type": "address"
        },
        {
          "indexed": true,
          "internalType": "address",
          "name": "newOwner",
          "type": "address"
        }
      ],
      "name": "OwnershipTransferred",
      "type": "event"
    },
    {
      "anonymous": false,
      "inputs": [
        {
          "indexed": true,
          "internalType": "address",
          "name": "signer",
          "type": "address"
        }
      ],
      "name": "SignerChanged",
      "type": "event"
    },
    {
      "inputs": [
        {
          "internalType": "uint32",
          "name": "unstakeDelaySec",
          "type": "uint32"
        }
      ],
      "name": "addStake",
      "outputs": [],
      "stateMutability": "payable",
      "type": "function"
    },
    {
      "inputs": [
        {
          "internalType": "address",
          "name": "_signer",
          "type": "address"
        }
      ],
      "name": "changeSigner",
      "outputs": [],
      "stateMutability": "nonpayable",
      "type": "function"
    },
    {
      "inputs": [],
      "name": "deposit",
      "outputs": [],
      "stateMutability": "payable",
      "type": "function"
    },
    {
      "inputs": [],
      "name": "entryPoint",
      "outputs": [
        {
          "internalType": "contract IEntryPoint",
          "name": "",
          "type": "address"
        }
      ],
      "stateMutability": "view",
      "type": "function"
    },
    {
      "inputs": [],
      "name": "getDeposit",
      "outputs": [
        {
          "internalType": "uint256",
          "name": "",
          "type": "uint256"
        }
      ],
      "stateMutability": "view",
      "type": "function"
    },
    {
      "inputs": [
        {
          "components": [
            {
              "internalType": "address",
              "name": "sender",
              "type": "address"
            },
            {
              "internalType": "uint256",
              "name": "nonce",
              "type": "uint256"
            },
            {
              "internalType": "bytes",
              "name": "initCode",
              "type": "bytes"
            },
            {
              "internalType": "bytes",
              "name": "callData",
              "type": "bytes"
            },
            {
              "internalType": "uint256",
              "name": "callGasLimit",
              "type": "uint256"
            },
            {
              "internalType": "uint256",
              "name": "verificationGasLimit",
              "type": "uint256"
            },
            {
              "internalType": "uint256",
              "name": "preVerificationGas",
              "type": "uint256"
            },
            {
              "internalType": "uint256",
              "name": "maxFeePerGas",
              "type": "uint256"
            },
            {
              "internalType": "uint256",
              "name": "maxPriorityFeePerGas",
              "type": "uint256"
            },
            {
              "internalType": "bytes",
              "name": "paymasterAndData",
              "type": "bytes"
            },
            {
              "internalType": "bytes",
              "name": "signature",
              "type": "bytes"
            }
          ],
          "internalType": "struct UserOperation",
          "name": "userOp",
          "type": "tuple"
        },
        {
          "internalType": "uint48",
          "name": "validUntil",
          "type": "uint48"
        },
        {
          "internalType": "uint48",
          "name": "validAfter",
          "type": "uint48"
        }
      ],
      "name": "getHash",
      "outputs": [
        {
          "internalType": "bytes32",
          "name": "",
          "type": "bytes32"
        }
      ],
      "stateMutability": "view",
      "type": "function"
    },
    {
      "inputs": [],
      "name": "owner",
      "outputs": [
        {
          "internalType": "address",
          "name": "",
          "type": "address"
        }
      ],
      "stateMutability": "view",
      "type": "function"
    },
    {
      "inputs": [
        {
          "internalType": "bytes",
          "name": "paymasterAndData",
          "type": "bytes"
        }
      ],
      "name": "parsePaymasterAndData",
      "outputs": [
        {
          "internalType": "uint48",
          "name": "validUntil",
          "type": "uint48"
        },
        {
          "internalType": "uint48",
          "name": "validAfter",
          "type": "uint48"
        },
        {
          "internalType": "bytes",
          "name": "signature",
          "type": "bytes"
        }
      ],
      "stateMutability": "pure",
      "type": "function"
    },
    {
      "inputs": [
        {
          "internalType": "enum IPaymaster.PostOpMode",
          "name": "mode",
          "type": "uint8"
        },
        {
          "internalType": "bytes",
          "name": "context",
          "type": "bytes"
        },
        {
          "internalType": "uint256",
          "name": "actualGasCost",
          "type": "uint256"
        }
      ],
      "name": "postOp",
      "outputs": [],
      "stateMutability": "nonpayable",
      "type": "function"
    },
    {
      "inputs": [],
      "name": "renounceOwnership",
      "outputs": [],
      "stateMutability": "nonpayable",
      "type": "function"
    },
    {
      "inputs": [
        {
          "internalType": "address",
          "name": "",
          "type": "address"
        }
      ],
      "name": "senderNonce",
      "outputs": [
        {
          "internalType": "uint256",
          "name": "",
          "type": "uint256"
        }
      ],
      "stateMutability": "view",
      "type": "function"
    },
    {
      "inputs": [],
      "name": "signer",
      "outputs": [
        {
          "internalType": "address",
          "name": "",
          "type": "address"
        }
      ],
      "stateMutability": "view",
      "type": "function"
    },
    {
      "inputs": [
        {
          "internalType": "address",
          "name": "newOwner",
          "type": "address"
        }
      ],
      "name": "transferOwnership",
      "outputs": [],
      "stateMutability": "nonpayable",
      "type": "function"
    },
    {
      "inputs": [],
      "name": "unlockStake",
      "outputs": [],
      "stateMutability": "nonpayable",
      "type": "function"
    },
    {
      "inputs": [
        {
          "components": [
            {
              "internalType": "address",
              "name": "sender",
              "type": "address"
            },
            {
              "internalType": "uint256",
              "name": "nonce",
              "type": "uint256"
            },
            {
              "internalType": "bytes",
              "name": "initCode",
              "type": "bytes"
            },
            {
              "internalType": "bytes",
              "name": "callData",
              "type": "bytes"
            },
            {
              "internalType": "uint256",
              "name": "callGasLimit",
              "type": "uint256"
            },
            {
              "internalType": "uint256",
              "name": "verificationGasLimit",
              "type": "uint256"
            },
            {
              "internalType": "uint256",
              "name": "preVerificationGas",
              "type": "uint256"
            },
            {
              "internalType": "uint256",
              "name": "maxFeePerGas",
              "type": "uint256"
            },
            {
              "internalType": "uint256",
              "name": "maxPriorityFeePerGas",
              "type": "uint256"
            },
            {
              "internalType": "bytes",
              "name": "paymasterAndData",
              "type": "bytes"
            },
            {
              "internalType": "bytes",
              "name": "signature",
              "type": "bytes"
            }
          ],
          "internalType": "struct UserOperation",
          "name": "userOp",
          "type": "tuple"
        },
        {
          "internalType": "bytes32",
          "name": "userOpHash",
          "type": "bytes32"
        },
        {
          "internalType": "uint256",
          "name": "maxCost",
          "type": "uint256"
        }
      ],
      "name": "validatePaymasterUserOp",
      "outputs": [
        {
          "internalType": "bytes",
          "name": "context",
          "type": "bytes"
        },
        {
          "internalType": "uint256",
          "name": "validationData",
          "type": "uint256"
        }
      ],
      "stateMutability": "nonpayable",
      "type": "function"
    },
    {
      "inputs": [
        {
          "internalType": "address payable",
          "name": "withdrawAddress",
          "type": "address"
        }
      ],
      "name": "withdrawStake",
      "outputs": [],
      "stateMutability": "nonpayable",
      "type": "function"
    },
    {
      "inputs": [
        {
          "internalType": "address payable",
          "name": "withdrawAddress",
          "type": "address"
        },
        {
          "internalType": "uint256",
          "name": "amount",
          "type": "uint256"
        }
      ],
      "name": "withdrawTo",
      "outputs": [],
      "stateMutability": "nonpayable",
      "type": "function"
    }
  ],
  "transactionHash": "0xf00da518b4295729354381c4939bf5008f30ba36bfa08c3fde93e8aed45feae9",
  "args": [
    "0x5FF137D4b0FDCD49DcA30c7CF57E578a026d2789",
    "0x962F35D2249B069B38BbE169B2A449f823b8Bf79"
  ],
  "numDeployments": 2,
  "solcInputHash": "d8accbfad6f64bb453cd9c6faf004ee1",
  "bytecode": "0x60a03461011957601f61114a38819003918201601f19168301916001600160401b0383118484101761011e5780849260409485528339810103126101195780516001600160a01b0391828216820361011957602001519082821680920361011957600080546001600160a01b0319808216339081178455604051967f5719a5656c5cfdaafa148ecf366fd3b0a7fae06449ce2a46225977fb7417e29d958794909291167f8be0079c531659141344cd1fd0a4f28419497f9722a3daafe3b4186f6b6457e08680a3608052600154161760015580a2611015908161013582396080518181816101590152818161020b015281816105b2015281816105fb0152818161067d015281816106fe0152818161079201526109da0152f35b600080fd5b634e487b7160e01b600052604160045260246000fdfe6080604052600436101561001257600080fd5b60003560e01c80630396cb6014610127578063205c287814610122578063238ac9331461011d578063715018a6146101185780638da5cb5b1461011357806394d4ad601461010e57806394e1fc19146101095780639c90b44314610104578063a9a23409146100ff578063aad2b723146100fa578063b0d691fe146100f5578063bb9fe6bf146100f0578063c23a5cea146100eb578063c399ec88146100e6578063d0e30db0146100e1578063f2fde38b146100dc5763f465c77e146100d757600080fd5b610911565b6107e7565b61077b565b6106d1565b61064a565b6105d6565b610592565b61051e565b610493565b610455565b6103f0565b61034e565b6102f9565b610292565b61026b565b6101d8565b600060203660031901126101bf5760043563ffffffff81168091036101bb5761014e610a47565b816001600160a01b037f00000000000000000000000000000000000000000000000000000000000000001691823b156101bb57602460405180948193621cb65b60e51b8352600483015234905af180156101b6576101aa575080f35b6101b390610989565b80f35b6109c4565b5080fd5b80fd5b6001600160a01b038116036101d357565b600080fd5b346101d357600060403660031901126101bf576004356101f7816101c2565b6101ff610a47565b816001600160a01b03807f00000000000000000000000000000000000000000000000000000000000000001692833b156102675760449083604051958694859363040b850f60e31b855216600484015260243560248401525af180156101b6576101aa575080f35b8280fd5b346101d35760003660031901126101d35760206001600160a01b0360015416604051908152f35b346101d3576000806003193601126101bf576102ac610a47565b806001600160a01b03815473ffffffffffffffffffffffffffffffffffffffff1981168355167f8be0079c531659141344cd1fd0a4f28419497f9722a3daafe3b4186f6b6457e08280a380f35b346101d35760003660031901126101d35760206001600160a01b0360005416604051908152f35b9181601f840112156101d35782359167ffffffffffffffff83116101d357602083818601950101116101d357565b346101d35760203660031901126101d35760043567ffffffffffffffff81116101d35761038a6103846080923690600401610320565b90610fd8565b809160409594955195869465ffffffffffff809216865216602085015260606040850152816060850152848401376000828201840152601f01601f19168101030190f35b90816101609103126101d35790565b359065ffffffffffff821682036101d357565b346101d35760603660031901126101d35760043567ffffffffffffffff81116101d3576104219036906004016103ce565b6024359065ffffffffffff80831683036101d35760443590811681036101d35760209261044d92610a9f565b604051908152f35b346101d35760203660031901126101d3576001600160a01b0360043561047a816101c2565b1660005260026020526020604060002054604051908152f35b346101d35760603660031901126101d357600360043510156101d35760243567ffffffffffffffff81116101d3576104cf903690600401610320565b50506104d96109d0565b60405162461bcd60e51b815260206004820152600d60248201527f6d757374206f76657272696465000000000000000000000000000000000000006044820152606490fd5b346101d35760203660031901126101d3576001600160a01b03600435610543816101c2565b61054b610a47565b168073ffffffffffffffffffffffffffffffffffffffff1960015416176001557f5719a5656c5cfdaafa148ecf366fd3b0a7fae06449ce2a46225977fb7417e29d600080a2005b346101d35760003660031901126101d35760206040516001600160a01b037f0000000000000000000000000000000000000000000000000000000000000000168152f35b346101d3576000806003193601126101bf576105f0610a47565b806001600160a01b037f000000000000000000000000000000000000000000000000000000000000000016803b1561064757819060046040518094819363bb9fe6bf60e01b83525af180156101b6576101aa575080f35b50fd5b346101d357600060203660031901126101bf57600435610669816101c2565b610671610a47565b816001600160a01b03807f00000000000000000000000000000000000000000000000000000000000000001692833b156102675760249083604051958694859363611d2e7560e11b85521660048401525af180156101b6576101aa575080f35b346101d3576000806003193601126101bf576040516370a0823160e01b81523060048201526020816024817f00000000000000000000000000000000000000000000000000000000000000006001600160a01b03165afa9081156101b6578291610745575b604051828152602090f35b0390f35b90506020813d8211610773575b8161075f602093836109a2565b810103126101bb5761074191505138610736565b3d9150610752565b6000806003193601126101bf576001600160a01b037f00000000000000000000000000000000000000000000000000000000000000001681813b156101bf5760405163b760faf960e01b8152306004820152918290602490829034905af180156101b6576101aa575080f35b346101d35760203660031901126101d357600435610804816101c2565b61080c610a47565b6001600160a01b0380911680156108665760009182548273ffffffffffffffffffffffffffffffffffffffff198216178455167f8be0079c531659141344cd1fd0a4f28419497f9722a3daafe3b4186f6b6457e08380a380f35b60405162461bcd60e51b815260206004820152602660248201527f4f776e61626c653a206e6577206f776e657220697320746865207a65726f206160448201527f64647265737300000000000000000000000000000000000000000000000000006064820152608490fd5b919082519283825260005b8481106108fd575050826000602080949584010152601f8019910116010190565b6020818301810151848301820152016108dc565b346101d35760603660031901126101d35760043567ffffffffffffffff81116101d3576109556109486109699236906004016103ce565b6109506109d0565b610bfe565b6040519283926040845260408401906108d1565b9060208301520390f35b634e487b7160e01b600052604160045260246000fd5b67ffffffffffffffff811161099d57604052565b610973565b90601f8019910116810190811067ffffffffffffffff82111761099d57604052565b6040513d6000823e3d90fd5b6001600160a01b037f0000000000000000000000000000000000000000000000000000000000000000163303610a0257565b60405162461bcd60e51b815260206004820152601560248201527f53656e646572206e6f7420456e747279506f696e7400000000000000000000006044820152606490fd5b6001600160a01b03600054163303610a5b57565b606460405162461bcd60e51b815260206004820152602060248201527f4f776e61626c653a2063616c6c6572206973206e6f7420746865206f776e65726044820152fd5b610b359080610ab2610120820182610b3b565b5003936001600160a01b03601f199283870160405197880160405280885281602089013735166000526002602052604060002054604051948592610b02602085019860c08a5260e08601906108d1565b92466040860152306060860152608085015265ffffffffffff80921660a08501521660c0830152039081018352826109a2565b51902090565b903590601e19813603018212156101d3570180359067ffffffffffffffff82116101d3576020019181360383136101d357565b6000198114610b7d5760010190565b634e487b7160e01b600052601160045260246000fd5b92919267ffffffffffffffff821161099d5760405191610bbd601f8201601f1916602001846109a2565b8294818452818301116101d3578281602093846000960137010152565b604051906020820182811067ffffffffffffffff82111761099d5760405260008252565b90610c10610384610120840184610b3b565b919490604083148015610dbc575b15610d5257610cb9610cc591610cb3610c6a610c3b8a8988610a9f565b7f19457468657265756d205369676e6564204d6573736167653a0a333200000000600052601c52603c60002090565b91610c936001600160a01b03809735166001600160a01b03166000526002602052604060002090565b610c9d8154610b6e565b90556001546001600160a01b0316963691610b93565b90610dc6565b6001600160a01b031690565b911603610d0d5765ffffffffffff60a01b7fffffffffffff0000000000000000000000000000000000000000000000000000610cff610bda565b9460d01b169160a01b161790565b60019065ffffffffffff60a01b7fffffffffffff0000000000000000000000000000000000000000000000000000610d43610bda565b9560d01b169160a01b16171790565b608460405162461bcd60e51b815260206004820152604060248201527f566572696679696e675061796d61737465723a20696e76616c6964207369676e60448201527f6174757265206c656e67746820696e207061796d6173746572416e64446174616064820152fd5b5060418314610c1e565b610ddb91610dd391610f1e565b919091610dfe565b90565b60051115610de857565b634e487b7160e01b600052602160045260246000fd5b610e0781610dde565b80610e0f5750565b610e1881610dde565b60018103610e655760405162461bcd60e51b815260206004820152601860248201527f45434453413a20696e76616c6964207369676e617475726500000000000000006044820152606490fd5b610e6e81610dde565b60028103610ebb5760405162461bcd60e51b815260206004820152601f60248201527f45434453413a20696e76616c6964207369676e6174757265206c656e677468006044820152606490fd5b80610ec7600392610dde565b14610ece57565b60405162461bcd60e51b815260206004820152602260248201527f45434453413a20696e76616c6964207369676e6174757265202773272076616c604482015261756560f01b6064820152608490fd5b906041815114600014610f4c57610f48916020820151906060604084015193015160001a90610f56565b9091565b5050600090600290565b9291907f7fffffffffffffffffffffffffffffff5d576e7357a4501ddfe92f46681b20a08311610fcc5791608094939160ff602094604051948552168484015260408301526060820152600093849182805260015afa156101b65781516001600160a01b03811615610fc6579190565b50600190565b50505050600090600390565b9190806054116101d357610fee601484016103dd565b916054610ffd603486016103dd565b93940191605319019056fea164736f6c6343000813000a",
  "devdoc": {
    "kind": "dev",
    "methods": {
      "addStake(uint32)": {
        "params": {
          "unstakeDelaySec": "- the unstake delay for this paymaster. Can only be increased."
        }
      },
      "owner()": {
        "details": "Returns the address of the current owner."
      },
      "postOp(uint8,bytes,uint256)": {
        "params": {
          "actualGasCost": "- actual gas used so far (without this postOp call).",
          "context": "- the context value returned by validatePaymasterUserOp",
          "mode": "enum with the following options:      opSucceeded - user operation succeeded.      opReverted  - user op reverted. still has to pay for gas.      postOpReverted - user op succeeded, but caused postOp (in mode=opSucceeded) to revert.                       Now this is the 2nd call, after user's op was deliberately reverted."
        }
      },
      "renounceOwnership()": {
        "details": "Leaves the contract without owner. It will not be possible to call `onlyOwner` functions. Can only be called by the current owner. NOTE: Renouncing ownership will leave the contract without an owner, thereby disabling any functionality that is only available to the owner."
      },
      "transferOwnership(address)": {
        "details": "Transfers ownership of the contract to a new account (`newOwner`). Can only be called by the current owner."
      },
      "validatePaymasterUserOp((address,uint256,bytes,bytes,uint256,uint256,uint256,uint256,uint256,bytes,bytes),bytes32,uint256)": {
        "params": {
          "maxCost": "the maximum cost of this transaction (based on maximum gas and gas price from userOp)",
          "userOp": "the user operation",
          "userOpHash": "hash of the user's request data."
        },
        "returns": {
          "context": "value to send to a postOp      zero length to signify postOp is not required.",
          "validationData": "signature and time-range of this operation, encoded the same as the return value of validateUserOperation      <20-byte> sigAuthorizer - 0 for valid signature, 1 to mark signature failure,         otherwise, an address of an \"authorizer\" contract.      <6-byte> validUntil - last timestamp this operation is valid. 0 for \"indefinite\"      <6-byte> validAfter - first timestamp this operation is valid      Note that the validation code cannot use block.timestamp (or block.number) directly."
        }
      },
      "withdrawStake(address)": {
        "params": {
          "withdrawAddress": "the address to send withdrawn value."
        }
      },
      "withdrawTo(address,uint256)": {
        "params": {
          "amount": "to withdraw",
          "withdrawAddress": "target to send to"
        }
      }
    },
    "version": 1
  },
  "userdoc": {
    "kind": "user",
    "methods": {
      "addStake(uint32)": {
        "notice": "add stake for this paymaster. This method can also carry eth value to add to the current stake."
      },
      "deposit()": {
        "notice": "add a deposit for this paymaster, used for paying for transaction fees"
      },
      "getDeposit()": {
        "notice": "return current paymaster's deposit on the entryPoint."
      },
      "postOp(uint8,bytes,uint256)": {
        "notice": "post-operation handler. Must verify sender is the entryPoint"
      },
      "unlockStake()": {
        "notice": "unlock the stake, in order to withdraw it. The paymaster can't serve requests once unlocked, until it calls addStake again"
      },
      "validatePaymasterUserOp((address,uint256,bytes,bytes,uint256,uint256,uint256,uint256,uint256,bytes,bytes),bytes32,uint256)": {
        "notice": "payment validation: check if paymaster agrees to pay. Must verify sender is the entryPoint. Revert to reject this request. Note that bundlers will reject this method if it changes the state, unless the paymaster is trusted (whitelisted) The paymaster pre-pays using its deposit, and receive back a refund after the postOp method returns."
      },
      "withdrawStake(address)": {
        "notice": "withdraw the entire paymaster's stake. stake must be unlocked first (and then wait for the unstakeDelay to be over)"
      },
      "withdrawTo(address,uint256)": {
        "notice": "withdraw value from the deposit"
      }
    },
    "version": 1
  },
  "storageLayout": {
    "storage": [
      {
        "astId": 4219,
        "contract": "contracts/paymaster/VerifyingPaymaster.sol:VerifyingPaymaster",
        "label": "_owner",
        "offset": 0,
        "slot": "0",
        "type": "t_address"
      },
      {
        "astId": 8812,
        "contract": "contracts/paymaster/VerifyingPaymaster.sol:VerifyingPaymaster",
        "label": "signer",
        "offset": 0,
        "slot": "1",
        "type": "t_address"
      },
      {
        "astId": 8842,
        "contract": "contracts/paymaster/VerifyingPaymaster.sol:VerifyingPaymaster",
        "label": "senderNonce",
        "offset": 0,
        "slot": "2",
        "type": "t_mapping(t_address,t_uint256)"
      }
    ],
    "types": {
      "t_address": {
        "encoding": "inplace",
        "label": "address",
        "numberOfBytes": "20"
      },
      "t_mapping(t_address,t_uint256)": {
        "encoding": "mapping",
        "key": "t_address",
        "label": "mapping(address => uint256)",
        "numberOfBytes": "32",
        "value": "t_uint256"
      },
      "t_uint256": {
        "encoding": "inplace",
        "label": "uint256",
        "numberOfBytes": "32"
      }
    }
  }
}